:100000000C942A000C943F000C943F000C943F0089
:100010000C943F000C943F000C943F000C943F0064
:100020000C943F000C943F000C943F000C943F0054
:100030000C943F000C943F000C943F000C943F0044
:100040000C943F000C943F000C943F000C943F0034
:100050000C943F0011241FBECFE5D8E0DEBFCDBF1A
:1000600010E0A0E6B0E0E0E4F8E002C005900D92F8
:10007000AA36B107D9F70E9468030C941E040C94A9
:100080000000DF93CF9300D000D00F92CDB7DEB742
:1000900089836A834B838981282F30E03D832C83B9
:1000A0008C819D818130910509F447C02C813D816F
:1000B000223031052CF48C819D81009771F0CBC0EA
:1000C0002C813D812230310509F467C08C819D81EE
:1000D0008330910509F491C0BEC08B818130A1F4B9
:1000E000ABE3B0E0EBE3F0E08081482F8A81282F7A
:1000F00030E081E090E0022E02C0880F991F0A9440
:10010000E2F7842B8C93A7C08B81882309F0A3C0CE
:10011000ABE3B0E0EBE3F0E08081482F8A81282F49
:1001200030E081E090E0022E02C0880F991F0A940F
:10013000E2F7809584238C938EC08B818130A1F46B
:10014000A8E3B0E0E8E3F0E08081482F8A81282F1F
:1001500030E081E090E0022E02C0880F991F0A94DF
:10016000E2F7842B8C9377C08B81882309F073C0CE
:10017000A8E3B0E0E8E3F0E08081482F8A81282FEF
:1001800030E081E090E0022E02C0880F991F0A94AF
:10019000E2F7809584238C935EC08B818130A1F43B
:1001A000A5E3B0E0E5E3F0E08081482F8A81282FC5
:1001B00030E081E090E0022E02C0880F991F0A947F
:1001C000E2F7842B8C9347C08B81882309F043C0CE
:1001D000A5E3B0E0E5E3F0E08081482F8A81282F95
:1001E00030E081E090E0022E02C0880F991F0A944F
:1001F000E2F7809584238C932EC08B818130A1F40B
:10020000A2E3B0E0E2E3F0E08081482F8A81282F6A
:1002100030E081E090E0022E02C0880F991F0A941E
:10022000E2F7842B8C9317C08B818823A1F4A2E37F
:10023000B0E0E2E3F0E08081482F8A81282F30E0AF
:1002400081E090E0022E02C0880F991F0A94E2F725
:10025000809584238C930F900F900F900F900F90A8
:10026000CF91DF910895DF93CF9300D000D00F920C
:10027000CDB7DEB789836A838981282F30E03D833B
:100280002C834C815D814130510549F18C819D81E8
:100290008230910534F42C813D812115310561F0C6
:1002A00057C04C815D814230510561F18C819D8147
:1002B00083309105D1F14CC0E9E3F0E08081282F33
:1002C00030E08A81882F90E0A90102C055954795BA
:1002D0008A95E2F7CA01582F51705B833AC0E6E372
:1002E000F0E08081282F30E08A81882F90E0A901FA
:1002F00002C0559547958A95E2F7CA01582F51706B
:100300005B8327C0E3E3F0E08081282F30E08A811F
:10031000882F90E0A90102C0559547958A95E2F78C
:10032000CA01582F51705B8314C0E0E3F0E0808174
:10033000282F30E08A81882F90E0A90102C05595CE
:1003400047958A95E2F7CA01582F51705B8301C027
:100350001B828B810F900F900F900F900F90CF9179
:10036000DF910895DF93CF9300D000D00F92CDB7E7
:10037000DEB789836A834B838981282F30E03D83F0
:100380002C838C819D818130910509F446C02C819C
:100390003D81223031052CF48C819D81009771F0D4
:1003A000CAC02C813D812230310509F466C08C81A0
:1003B0009D818330910509F490C0BDC08B81882355
:1003C000A1F4AAE3B0E0EAE3F0E08081482F8A815B
:1003D000282F30E081E090E0022E02C0880F991FA4
:1003E0000A94E2F7809584238C938B81813009F005
:1003F000A2C0AAE3B0E0EAE3F0E08081482F8A815E
:10040000282F30E081E090E0022E02C0880F991F73
:100410000A94E2F7842B8C938EC08B818823A9F4F5
:10042000A7E3B0E0E7E3F0E08081482F8A81282F3E
:1004300030E081E090E0022E02C0880F991F0A94FC
:10044000E2F7809584238C9376C08B81813009F00C
:1004500072C0A7E3B0E0E7E3F0E08081482F8A8133
:10046000282F30E081E090E0022E02C0880F991F13
:100470000A94E2F7842B8C935EC08B818823A9F4C5
:10048000A4E3B0E0E4E3F0E08081482F8A81282FE4
:1004900030E081E090E0022E02C0880F991F0A949C
:1004A000E2F7809584238C9346C08B81813009F0DC
:1004B00042C0A4E3B0E0E4E3F0E08081482F8A8109
:1004C000282F30E081E090E0022E02C0880F991FB3
:1004D0000A94E2F7842B8C932EC08B818823A9F495
:1004E000A1E3B0E0E1E3F0E08081482F8A81282F8A
:1004F00030E081E090E0022E02C0880F991F0A943C
:10050000E2F7809584238C9316C08B81813099F417
:10051000A1E3B0E0E1E3F0E08081482F8A81282F59
:1005200030E081E090E0022E02C0880F991F0A940B
:10053000E2F7842B8C930F900F900F900F900F90F9
:10054000CF91DF910895DF93CF9300D000D0CDB746
:10055000DEB789836A838981282F30E03C832B832F
:100560008B819C8181309105D1F02B813C8122309F
:1005700031052CF48B819C81009761F01EC02B818A
:100580003C812230310581F08B819C818330910543
:1005900081F013C0EAE3F0E08A8180830EC0E7E3D4
:1005A000F0E08A81808309C0E4E3F0E08A818083FF
:1005B00004C0E1E3F0E08A8180830F900F900F90F8
:1005C0000F90CF91DF910895DF93CF9300D000D0AB
:1005D000CDB7DEB789836A838981282F30E03C83D9
:1005E0002B838B819C8181309105D1F02B813C81C3
:1005F000223031052CF48B819C81009761F01EC064
:100600002B813C812230310581F08B819C818330AC
:10061000910581F013C0EBE3F0E08A8180830EC086
:10062000E8E3F0E08A81808309C0E5E3F0E08A81B5
:10063000808304C0E2E3F0E08A8180830F900F9012
:100640000F900F90CF91DF910895DF93CF9300D05B
:1006500000D0CDB7DEB789838981282F30E03C8375
:100660002B838B819C8181309105D1F02B813C8142
:10067000223031052CF48B819C81009761F01FC0E2
:100680002B813C812230310581F08B819C8183302C
:10069000910581F014C0E9E3F0E090819A8310C0E5
:1006A000E6E3F0E020812A830BC0E3E3F0E0308151
:1006B0003A8306C0E0E3F0E080818A8301C01A82B9
:1006C0008A810F900F900F900F90CF91DF91089536
:1006D000DF93CF93CDB7DEB765970FB6F894DEBF43
:1006E0000FBECDBFCE0107969A8B898BE0E6F0E076
:1006F000FC8BEB8BFAE0FD8BEB89FC8900808B890E
:100700009C8901969C8B8B8BE989FA890082898967
:100710009A8901969A8B898B9D8991509D8BED8941
:10072000EE2351F71E821D821C821B821A821982BF
:1007300080E060E00E94A30281E06FEF0E94A302CC
:1007400083E06FEF0E94A30282E06FEF0E94A3029A
:1007500081E06FEF0E94E40282E06FEF0E94E4020A
:1007600083E060E041E00E94410083E061E041E01D
:100770000E944100E6E2F0E087E88083E7E2F0E0F3
:1007800080EE8083A6E2B0E0E6E2F0E08081806463
:100790008C93E6E2F0E0808182958F70882F90E064
:1007A000817090700097A9F3E5E2F0E08081882FD6
:1007B00090E09E838D838D819E812AE030E0B90197
:1007C0000E940A04CB012AE030E0B9010E940A0429
:1007D0009C838B838D819E812AE030E0B9010E9449
:1007E0000A049A838983A5E3B0E02B813C81CE0182
:1007F0000796FC01E20FF31F80818C93A8E3B0E021
:1008000029813A81CE010796FC01E20FF31F808116
:100810008C93B8CFAA1BBB1B51E107C0AA1FBB1FFB
:10082000A617B70710F0A61BB70B881F991F5A957C
:10083000A9F780959095BC01CD010895F894FFCF5C
:0A084000A0F9C4D0999282F88090CC
:00000001FF
