:100000000C942A000C943C000C943C000C943C0092
:100010000C943C000C943C000C943C000C943C0070
:100020000C943C000C943C000C943C000C9409048F
:100030000C943C000C943C000C943C000C943C0050
:100040000C943C000C943C000C943C000C943C0040
:100050000C943C0011241FBECFE5D8E0DEBFCDBF1D
:1000600010E0A0E6B0E001C01D92AB37B107E1F7A8
:100070000E9465030C94B6040C940000DF93CF93A8
:1000800000D000D00F92CDB7DEB789836A834B834F
:100090008981282F30E03D832C838C819D818130A4
:1000A000910509F447C02C813D81223031052CF4A3
:1000B0008C819D81009771F0CBC02C813D812230D5
:1000C000310509F467C08C819D818330910509F465
:1000D00091C0BEC08B818130A1F4ABE3B0E0EBE313
:1000E000F0E08081482F8A81282F30E081E090E085
:1000F000022E02C0880F991F0A94E2F7842B8C937A
:10010000A7C08B81882309F0A3C0ABE3B0E0EBE389
:10011000F0E08081482F8A81282F30E081E090E054
:10012000022E02C0880F991F0A94E2F7809584235B
:100130008C938EC08B818130A1F4A8E3B0E0E8E31A
:10014000F0E08081482F8A81282F30E081E090E024
:10015000022E02C0880F991F0A94E2F7842B8C9319
:1001600077C08B81882309F073C0A8E3B0E0E8E38F
:10017000F0E08081482F8A81282F30E081E090E0F4
:10018000022E02C0880F991F0A94E2F780958423FB
:100190008C935EC08B818130A1F4A5E3B0E0E5E3F0
:1001A000F0E08081482F8A81282F30E081E090E0C4
:1001B000022E02C0880F991F0A94E2F7842B8C93B9
:1001C00047C08B81882309F043C0A5E3B0E0E5E395
:1001D000F0E08081482F8A81282F30E081E090E094
:1001E000022E02C0880F991F0A94E2F7809584239B
:1001F0008C932EC08B818130A1F4A2E3B0E0E2E3C6
:10020000F0E08081482F8A81282F30E081E090E063
:10021000022E02C0880F991F0A94E2F7842B8C9358
:1002200017C08B818823A1F4A2E3B0E0E2E3F0E001
:100230008081482F8A81282F30E081E090E0022ED3
:1002400002C0880F991F0A94E2F7809584238C934B
:100250000F900F900F900F900F90CF91DF91089516
:10026000DF93CF9300D000D00F92CDB7DEB7898354
:100270006A838981282F30E03D832C834C815D8106
:100280004130510549F18C819D818230910534F4D2
:100290002C813D812115310561F057C04C815D8174
:1002A0004230510561F18C819D8183309105D1F1FE
:1002B0004CC0E9E3F0E08081282F30E08A81882F6C
:1002C00090E0A90102C0559547958A95E2F7CA01C9
:1002D000582F51705B833AC0E6E3F0E08081282F0D
:1002E00030E08A81882F90E0A90102C0559547959A
:1002F0008A95E2F7CA01582F51705B8327C0E3E368
:10030000F0E08081282F30E08A81882F90E0A901D9
:1003100002C0559547958A95E2F7CA01582F51704A
:100320005B8314C0E0E3F0E08081282F30E08A8115
:10033000882F90E0A90102C0559547958A95E2F76C
:10034000CA01582F51705B8301C01B828B810F90B3
:100350000F900F900F900F90CF91DF910895DF9342
:10036000CF9300D000D00F92CDB7DEB789836A83D8
:100370004B838981282F30E03D832C838C819D81A4
:100380008130910509F446C02C813D812230310530
:100390002CF48C819D81009771F0CAC02C813D8125
:1003A0002230310509F466C08C819D81833091052E
:1003B00009F490C0BDC08B818823A1F4AAE3B0E00A
:1003C000EAE3F0E08081482F8A81282F30E081E045
:1003D00090E0022E02C0880F991F0A94E2F78095E0
:1003E00084238C938B81813009F0A2C0AAE3B0E012
:1003F000EAE3F0E08081482F8A81282F30E081E015
:1004000090E0022E02C0880F991F0A94E2F7842B15
:100410008C938EC08B818823A9F4A7E3B0E0E7E337
:10042000F0E08081482F8A81282F30E081E090E041
:10043000022E02C0880F991F0A94E2F78095842348
:100440008C9376C08B81813009F072C0A7E3B0E055
:10045000E7E3F0E08081482F8A81282F30E081E0B7
:1004600090E0022E02C0880F991F0A94E2F7842BB5
:100470008C935EC08B818823A9F4A4E3B0E0E4E30D
:10048000F0E08081482F8A81282F30E081E090E0E1
:10049000022E02C0880F991F0A94E2F780958423E8
:1004A0008C9346C08B81813009F042C0A4E3B0E058
:1004B000E4E3F0E08081482F8A81282F30E081E05A
:1004C00090E0022E02C0880F991F0A94E2F7842B55
:1004D0008C932EC08B818823A9F4A1E3B0E0E1E3E3
:1004E000F0E08081482F8A81282F30E081E090E081
:1004F000022E02C0880F991F0A94E2F78095842388
:100500008C9316C08B81813099F4A1E3B0E0E1E3D4
:10051000F0E08081482F8A81282F30E081E090E050
:10052000022E02C0880F991F0A94E2F7842B8C9345
:100530000F900F900F900F900F90CF91DF91089533
:10054000DF93CF9300D000D0CDB7DEB789836A8325
:100550008981282F30E03C832B838B819C818130E3
:100560009105D1F02B813C81223031052CF48B8117
:100570009C81009761F01EC02B813C8122303105A7
:1005800081F08B819C818330910581F013C0EAE377
:10059000F0E08A8180830EC0E7E3F0E08A81808307
:1005A00009C0E4E3F0E08A81808304C0E1E3F0E085
:1005B0008A8180830F900F900F900F90CF91DF91E1
:1005C0000895DF93CF9300D000D0CDB7DEB78983F5
:1005D0006A838981282F30E03C832B838B819C8127
:1005E00081309105D1F02B813C81223031052CF4F2
:1005F0008B819C81009761F01EC02B813C81223051
:10060000310581F08B819C818330910581F013C08D
:10061000EBE3F0E08A8180830EC0E8E3F0E08A81BA
:10062000808309C0E5E3F0E08A81808304C0E2E3CF
:10063000F0E08A8180830F900F900F900F90CF9100
:10064000DF910895DF93CF9300D000D0CDB7DEB710
:1006500089838981282F30E03C832B838B819C8187
:1006600081309105D1F02B813C81223031052CF471
:100670008B819C81009761F01FC02B813C812230CF
:10068000310581F08B819C818330910581F014C00C
:10069000E9E3F0E090819A8310C0E6E3F0E0208186
:1006A0002A830BC0E3E3F0E030813A8306C0E0E345
:1006B000F0E080818A8301C01A828A810F900F90B6
:1006C0000F900F90CF91DF910895DF93CF93CDB727
:1006D000DEB781E060E041E00E94AF0181E060E0D0
:1006E00040E00E943E0081E061E041E00E94AF01F5
:1006F00081E061E040E00E943E0081E062E041E094
:100700000E94AF0181E062E040E00E943E0081E093
:1007100063E041E00E94AF0181E063E040E00E94BD
:100720003E00E3E5F0E081E08083E2E5F0E0108266
:10073000A9E5B0E0E9E5F0E0808181608C93AFE568
:10074000B0E0EFE5F0E0808180688C9384EF91E089
:10075000A0E0B0E080936C0090936D00A0936E00D9
:10076000B0936F0088EE93E0A0E0B0E0809370005B
:1007700090937100A0937200B09373008BEE93E09E
:100780009093750080937400109262001092630041
:10079000109264001092650084EF91E0A0E0B0E058
:1007A0008093660090936700A0936800B0936900FF
:1007B0008AEF93E090936B0080936A008CE690E060
:1007C000909378008093770082E690E090937A008F
:1007D00080937900FFCFDF93CF93CDB7DEB7A8E347
:1007E000B0E0E8E3F0E0908181E089278C93CF913D
:1007F000DF910895DF93CF93CDB7DEB7A8E3B0E0E4
:10080000E8E3F0E0908182E089278C93CF91DF913B
:1008100008951F920F920FB60F9211242F933F93BA
:100820004F935F936F937F938F939F93AF93BF93F8
:10083000EF93FF93DF93CF93CDB7DEB78091600046
:100840009091610001969093610080936000809187
:100850006000909161008032910509F074C010929F
:10086000610010926000E2E5F0E080EC808310927D
:10087000760064C080917600882F90E0880F991FE1
:10088000FC01E958FF4F0190F081E02D80819181BA
:10089000A281B3810097A105B105A1F580917600F1
:1008A000882F90E0880F991FFC01E958FF4F0190B5
:1008B000F081E02D0084F185E02D0995809176008E
:1008C000882F90E0880F991FFC01E958FF4F208185
:1008D000318180917600882F90E0880F991FFC016C
:1008E000E958FF4F0190F081E02D84819581A68128
:1008F000B7810197A109B109F90180839183A2838E
:10090000B38317C080917600882F90E0880F991FDD
:10091000FC01E958FF4F0190F081E02D8081918129
:10092000A281B3810197A109B10980839183A28338
:10093000B383809176008F5F8093760080917600FC
:10094000823008F497CFCF91DF91FF91EF91BF9163
:10095000AF919F918F917F916F915F914F913F9157
:100960002F910F900FBE0F901F901895F894FFCF06
:00000001FF
