:100000000C942A000C943F000C943F000C943F0089
:100010000C943F000C943F000C943F000C943F0064
:100020000C943F000C943F000C943F000C943F0054
:100030000C943F000C943F000C943F000C943F0044
:100040000C943F000C943F000C943F000C943F0034
:100050000C943F0011241FBECFE5D8E0DEBFCDBF1A
:1000600010E0A0E6B0E0EAE4F3E202C005900D92F1
:10007000A836B107D9F70E94230F0C94A3110C9452
:100080000000EF92FF920F931F937B018C0120E001
:1000900030E040E05FE40E94410388238CF0C80117
:1000A000B70120E030E040E05FE40E94B9010E9427
:1000B000A1039B01AC01205030404040504806C095
:1000C000C801B7010E94A1039B01AC01B901CA019B
:1000D0001F910F91FF90EF900895A0E0B0E0E3E74B
:1000E000F0E00C946C11DC012B01FA019C91923030
:1000F00008F439C1EB018881823008F433C19430AF
:1001000069F4843009F02FC111969C91119789816F
:10011000981709F428C1A0E6B0E025C1843009F49D
:1001200021C18230A9F4923009F01DC19A01AD01BC
:1001300088E0EA010990AE01E90109929E0181502F
:10014000C1F7E201898111969C918923818308C1BD
:10015000923009F407C112962D903C901397EB0151
:100160008A819B811496AD90BD90CD90DC901797BD
:10017000EC80FD800E811F819101281B390BB90194
:1001800037FF04C066277727621B730B6032710547
:100190000CF061C0121613066CF537014801062EEB
:1001A00004C096948794779467940A94D2F721E0D8
:1001B00030E040E050E004C0220F331F441F551FC1
:1001C0006A95D2F721503040404050402E213F21C7
:1001D00040235123211531054105510521F021E02E
:1001E00030E040E050E079018A01E628F72808294C
:1001F00019293CC0232BD1F1260E371E35014601AB
:10020000062E04C096948794779467940A94D2F744
:1002100021E030E040E050E004C0220F331F441FD3
:10022000551F6A95D2F721503040404050402A2156
:100230003B214C215D21211531054105510521F05E
:1002400021E030E040E050E059016A01A628B728DB
:10025000C828D9280BC0821593052CF01C01AA24AC
:10026000BB24650103C0EE24FF24870111969C91F5
:10027000D20111968C91981709F445C0992339F051
:10028000A80197012A193B094C095D0906C0A6017E
:1002900095012E193F09400B510B57FD08C01182E3
:1002A0003382228224833583468357831DC081E0B5
:1002B00081833382228288279927DC01821B930B5A
:1002C000A40BB50B84839583A683B7830DC0220F3F
:1002D000331F441F551F24833583468357838281F0
:1002E000938101979383828324813581468157814D
:1002F000DA01C9010197A109B1098F5F9F4FAF4F83
:10030000BF4328F30BC0918333822282EA0CFB1C8B
:100310000C1D1D1DE482F5820683178383E0808314
:10032000248135814681578157FF1AC0C901AA2708
:1003300097FDA095BA2F81709070A070B0705695FF
:10034000479537952795822B932BA42BB52B848328
:100350009583A683B7838281938101969383828359
:10036000DF0101C0D201CD01CDB7DEB7E2E10C94CF
:100370008811A0E2B0E0EFEBF1E00C947811698312
:100380007A838B839C832D833E834F835887E9E058
:10039000EE2EF12CEC0EFD1ECE010196B7010E944F
:1003A000CA048E010F5E1F4FCE010596B8010E9450
:1003B000CA048A8991E089278A8BC701B801AE01F6
:1003C000475E5F4F0E946D000E94F503A096E6E035
:1003D0000C949411A0E2B0E0E0EFF1E00C947811FD
:1003E00069837A838B839C832D833E834F835887D5
:1003F000F9E0EF2EF12CEC0EFD1ECE010196B701B7
:100400000E94CA048E010F5E1F4FCE010596B801EF
:100410000E94CA04C701B801AE01475E5F4F0E9447
:100420006D000E94F503A096E6E00C949411A0E202
:10043000B0E0EDE1F2E00C946C1169837A838B8378
:100440009C832D833E834F835887CE010196BE0146
:10045000675F7F4F0E94CA04CE010596BE016F5EA2
:100460007F4F0E94CA049985923088F08989823032
:10047000C8F0943019F4823051F404C0843029F467
:10048000923081F480E690E0C6C0923049F420E0DA
:100490009A858A89981321E02A87CE010996BBC0E4
:1004A000823049F420E09A858A89981321E02A8BCA
:1004B000CE014196B0C02D843E844F8458886D880B
:1004C0007E888F88988CEE24FF248701AA24BB2481
:1004D000650140E050E060E070E0E0E0F0E0C10184
:1004E00081709070892BE9F0E60CF71C081D191D2E
:1004F0009A01AB012A0D3B1D4C1D5D1D80E090E073
:10050000A0E0B0E0E614F7040805190520F481E046
:1005100090E0A0E0B0E0BA01A901480F591F6A1F9E
:100520007B1FAA0CBB1CCC1CDD1C97FE08C081E005
:1005300090E0A0E0B0E0A82AB92ACA2ADB2A3196C6
:10054000E032F10549F0660C771C881C991C569422
:10055000479437942794C3CFFA85EA892B893C893D
:100560008B859C85280F391F2E5F3F4F17C0CA010E
:1005700081709070892B61F016950795F794E79438
:1005800080E090E0A0E0B0E8E82AF92A0A2B1B2BD3
:1005900076956795579547952F5F3F4F77FDE7CF46
:1005A0000CC0440F551F661F771F17FD4160EE0CEE
:1005B000FF1C001F111F21503040403090E05907B0
:1005C00090E0690790E4790760F32B8F3C8FDB01A3
:1005D000CA018F779070A070B07080349105A1052A
:1005E000B10561F447FD0AC0E114F10401051105EC
:1005F00029F0405C5F4F6F4F7F4F40781A8EFE1797
:1006000011F081E08A8F4D8F5E8F6F8F78A383E02A
:10061000898FCE0149960E94F503A096E2E10C94E1
:100620008811A8E1B0E0E7E1F3E00C947811698368
:100630007A838B839C832D833E834F83588789E005
:10064000E82EF12CEC0EFD1ECE010196B7010E94A2
:10065000CA048E010F5E1F4FCE010596B8010E949D
:10066000CA048985823040F08989823028F0C70128
:10067000B8010E94420501C08FEF6896E6E00C9435
:100680009411A8E1B0E0E7E4F3E00C9478116983F9
:100690007A838B839C832D833E834F83588789E0A5
:1006A000E82EF12CEC0EFD1ECE010196B7010E9442
:1006B000CA048E010F5E1F4FCE010596B8010E943D
:1006C000CA048985823040F08989823028F0C701C8
:1006D000B8010E94420501C08FEF6896E6E00C94D5
:1006E0009411A8E1B0E0E7E7F3E00C947811698396
:1006F0007A838B839C832D833E834F83588789E045
:10070000E82EF12CEC0EFD1ECE010196B7010E94E1
:10071000CA048E010F5E1F4FCE010596B8010E94DC
:10072000CA048985823040F08989823028F0C70167
:10073000B8010E94420501C081E06896E6E00C9491
:100740009411ACE0B0E0E7EAF3E00C947C1169832B
:100750007A838B839C83CE010196BE016B5F7F4FB2
:100760000E94CA048D81823061F1823050F1843060
:1007700021F48E81882351F12EC02F81388537FDD9
:1007800020C06E812F3131051CF06623F9F023C0A3
:100790008EE190E0821B930B29853A854B855C8521
:1007A00004C056954795379527958A95D2F76623C5
:1007B000B1F050954095309521953F4F4F4F5F4F89
:1007C0000EC020E030E040E050E009C02FEF3FEFE6
:1007D0004FEF5FE704C020E030E040E050E8B901AF
:1007E000CA012C96E2E00C949811DF92EF92FF92EE
:1007F0000F931F93FC01E480F58006811781D1805F
:100800008081823048F480E090E0A0E1B0E0E82A06
:10081000F92A0A2B1B2BA5C0843009F49FC0823013
:1008200021F4EE24FF24870105C0E114F104010541
:10083000110519F4E0E0F0E096C0628173819FEF4A
:10084000623879070CF05BC022E83FEF261B370BBC
:100850002A3131052CF020E030E040E050E02AC0A1
:10086000B801A701022E04C0769567955795479564
:100870000A94D2F781E090E0A0E0B0E004C0880FD5
:10088000991FAA1FBB1F2A95D2F70197A109B10989
:100890008E219F21A023B1230097A105B10521F04E
:1008A00081E090E0A0E0B0E09A01AB01282B392B69
:1008B0004A2B5B2BDA01C9018F779070A070B07062
:1008C00080349105A105B10539F427FF09C0205CEA
:1008D0003F4F4F4F5F4F04C0215C3F4F4F4F5F4F23
:1008E000E0E0F0E02030A0E03A07A0E04A07A0E412
:1008F0005A0710F0E1E0F0E079018A0127C0603882
:10090000710564F5FB01E158FF4FD801C7018F77EE
:100910009070A070B07080349105A105B10539F4D4
:10092000E7FE0DC080E490E0A0E0B0E004C08FE3FB
:1009300090E0A0E0B0E0E80EF91E0A1F1B1F17FFB1
:1009400005C016950795F794E794319687E01695BC
:100950000795F794E7948A95D1F705C0EE24FF2414
:100960008701EFEFF0E06E2F679566276795902F70
:100970009F77D794DD24D7948E2F8695492F462BC9
:10098000582F5D29B701CA011F910F91FF90EF9079
:10099000DF900895FC01DB01408151812281622FAB
:1009A0006F7770E0221F2227221F9381892F880FE3
:1009B000822B282F30E0991F9927991F11969C931D
:1009C000119721153105A9F54115510561057105ED
:1009D00011F482E037C082E89FEF13969C938E93C8
:1009E00012979A01AB0167E0220F331F441F551F76
:1009F0006A95D1F783E08C930DC0220F331F441FFB
:100A0000551F12968D919C911397019713969C9365
:100A10008E931297203080E0380780E0480780E40A
:100A2000580758F314962D933D934D935C93179765
:100A300008952F3F310579F4411551056105710580
:100A400019F484E08C93089564FF03C081E08C93D3
:100A500012C01C9210C02F57304013963C932E9317
:100A6000129783E08C9387E0440F551F661F771F12
:100A70008A95D1F7706414964D935D936D937C9332
:100A8000179708951F93DC01FB019C91923008F4A5
:100A900047C08081823008F443C0943051F41196ED
:100AA0001C91843099F58181682F70E0611B710978
:100AB0003FC0843021F0923031F48230B9F181812D
:100AC000882389F12DC011961C9111978230F1F085
:100AD00081811817D9F412962D913C911397828138
:100AE00093818217930794F028173907BCF0149666
:100AF0008D919D910D90BC91A02D248135814681D1
:100B00005781281739074A075B0718F4112341F06A
:100B10000AC082179307A407B50740F4112319F000
:100B200061E070E005C06FEF7FEF02C060E070E051
:100B3000CB011F910895DF93CF9300D000D00F9287
:100B4000CDB7DEB789836A834B838981282F30E054
:100B50003D832C838C819D818130910509F447C0B0
:100B60002C813D81223031052CF48C819D810097B0
:100B700071F0CBC02C813D812230310509F467C072
:100B80008C819D818330910509F491C0BEC08B8119
:100B90008130A1F4ABE3B0E0EBE3F0E08081482FDB
:100BA0008A81282F30E081E090E0022E02C0880F79
:100BB000991F0A94E2F7842B8C93A7C08B8188231A
:100BC00009F0A3C0ABE3B0E0EBE3F0E08081482F95
:100BD0008A81282F30E081E090E0022E02C0880F49
:100BE000991F0A94E2F7809584238C938EC08B81A1
:100BF0008130A1F4A8E3B0E0E8E3F0E08081482F81
:100C00008A81282F30E081E090E0022E02C0880F18
:100C1000991F0A94E2F7842B8C9377C08B818823E9
:100C200009F073C0A8E3B0E0E8E3F0E08081482F6A
:100C30008A81282F30E081E090E0022E02C0880FE8
:100C4000991F0A94E2F7809584238C935EC08B8170
:100C50008130A1F4A5E3B0E0E5E3F0E08081482F26
:100C60008A81282F30E081E090E0022E02C0880FB8
:100C7000991F0A94E2F7842B8C9347C08B818823B9
:100C800009F043C0A5E3B0E0E5E3F0E08081482F40
:100C90008A81282F30E081E090E0022E02C0880F88
:100CA000991F0A94E2F7809584238C932EC08B8140
:100CB0008130A1F4A2E3B0E0E2E3F0E08081482FCC
:100CC0008A81282F30E081E090E0022E02C0880F58
:100CD000991F0A94E2F7842B8C9317C08B81882389
:100CE000A1F4A2E3B0E0E2E3F0E08081482F8A8142
:100CF000282F30E081E090E0022E02C0880F991F7B
:100D00000A94E2F7809584238C930F900F900F90B4
:100D10000F900F90CF91DF910895DF93CF9300D084
:100D200000D00F92CDB7DEB789836A838981282FDF
:100D300030E03D832C834C815D814130510549F188
:100D40008C819D818230910534F42C813D81211567
:100D5000310561F057C04C815D814230510561F130
:100D60008C819D8183309105D1F14CC0E9E3F0E0A5
:100D70008081282F30E08A81882F90E0A90102C06D
:100D8000559547958A95E2F7CA01582F51705B83B4
:100D90003AC0E6E3F0E08081282F30E08A81882F96
:100DA00090E0A90102C0559547958A95E2F7CA01DE
:100DB000582F51705B8327C0E3E3F0E08081282F38
:100DC00030E08A81882F90E0A90102C055954795AF
:100DD0008A95E2F7CA01582F51705B8314C0E0E393
:100DE000F0E08081282F30E08A81882F90E0A901EF
:100DF00002C0559547958A95E2F7CA01582F517060
:100E00005B8301C01B828B810F900F900F900F901E
:100E10000F90CF91DF910895DF93CF9300D000D052
:100E20000F92CDB7DEB789836A834B838981282FE0
:100E300030E03D832C838C819D818130910509F4C4
:100E400046C02C813D81223031052CF48C819D815E
:100E5000009771F0CAC02C813D812230310509F420
:100E600066C08C819D818330910509F490C0BDC01E
:100E70008B818823A1F4AAE3B0E0EAE3F0E080816B
:100E8000482F8A81282F30E081E090E0022E02C0B6
:100E9000880F991F0A94E2F7809584238C938B81A5
:100EA000813009F0A2C0AAE3B0E0EAE3F0E080817B
:100EB000482F8A81282F30E081E090E0022E02C086
:100EC000880F991F0A94E2F7842B8C938EC08B8134
:100ED0008823A9F4A7E3B0E0E7E3F0E08081482F9E
:100EE0008A81282F30E081E090E0022E02C0880F36
:100EF000991F0A94E2F7809584238C9376C08B81A6
:100F0000813009F072C0A7E3B0E0E7E3F0E0808150
:100F1000482F8A81282F30E081E090E0022E02C025
:100F2000880F991F0A94E2F7842B8C935EC08B8103
:100F30008823A9F4A4E3B0E0E4E3F0E08081482F43
:100F40008A81282F30E081E090E0022E02C0880FD5
:100F5000991F0A94E2F7809584238C9346C08B8175
:100F6000813009F042C0A4E3B0E0E4E3F0E0808126
:100F7000482F8A81282F30E081E090E0022E02C0C5
:100F8000880F991F0A94E2F7842B8C932EC08B81D3
:100F90008823A9F4A1E3B0E0E1E3F0E08081482FE9
:100FA0008A81282F30E081E090E0022E02C0880F75
:100FB000991F0A94E2F7809584238C9316C08B8145
:100FC000813099F4A1E3B0E0E1E3F0E08081482FC3
:100FD0008A81282F30E081E090E0022E02C0880F45
:100FE000991F0A94E2F7842B8C930F900F900F9027
:100FF0000F900F90CF91DF910895DF93CF9300D0A2
:1010000000D0CDB7DEB789836A838981282F30E08D
:101010003C832B838B819C8181309105D1F02B8186
:101020003C81223031052CF48B819C81009761F04A
:101030001EC02B813C812230310581F08B819C8147
:101040008330910581F013C0EAE3F0E08A81808368
:101050000EC0E7E3F0E08A81808309C0E4E3F0E0BA
:101060008A81808304C0E1E3F0E08A8180830F906D
:101070000F900F900F90CF91DF910895DF93CF9352
:1010800000D000D0CDB7DEB789836A838981282F4D
:1010900030E03C832B838B819C8181309105D1F0A2
:1010A0002B813C81223031052CF48B819C8100976F
:1010B00061F01EC02B813C812230310581F08B8193
:1010C0009C818330910581F013C0EBE3F0E08A81CD
:1010D00080830EC0E8E3F0E08A81808309C0E5E305
:1010E000F0E08A81808304C0E2E3F0E08A818083BB
:1010F0000F900F900F900F90CF91DF910895DF9395
:10110000CF9300D000D0CDB7DEB789838981282F57
:1011100030E03C832B838B819C8181309105D1F021
:101120002B813C81223031052CF48B819C810097EE
:1011300061F01FC02B813C812230310581F08B8111
:101140009C818330910581F014C0E9E3F0E0908147
:101150009A8310C0E6E3F0E020812A830BC0E3E32A
:10116000F0E030813A8306C0E0E3F0E080818A83DA
:1011700001C01A828A810F900F900F900F90CF912B
:10118000DF910895DF93CF93CDB7DEB7AA970FB65F
:10119000F894DEBF0FBECDBF81E060E041E00E9469
:1011A0000C0781E061E041E00E940C0781E062E011
:1011B00041E00E940C0781E063E041E00E940C07DF
:1011C00081E064E041E00E940C0781E065E041E0DD
:1011D0000E940C0781E066E041E00E940C0781E07C
:1011E00067E041E00E940C0782E060E041E00E947D
:1011F0000C0782E061E041E00E940C0782E062E0BF
:1012000041E00E940C0788E30E946B0A80E090E0B6
:10121000A0E0B0E48FA398A7A9A7BAA76FA178A56B
:1012200089A59AA520E030E04AEF54E40E94170215
:10123000DC01CB018BA39CA3ADA3BEA36BA17CA1BE
:101240008DA19EA120E030E040E85FE30E947103A1
:1012500088232CF481E090E09AA389A33FC06BA17E
:101260007CA18DA19EA120E03FEF4FE757E40E94B3
:10127000110318164CF56FA178A589A59AA520E051
:1012800030E040E251E40E941702DC01CB01BC01D6
:10129000CD010E944100DC01CB019AA389A30FC0BC
:1012A00088EC90E098A38F8F8F8D98A10197F1F72C
:1012B00098A38F8F89A19AA101979AA389A389A145
:1012C0009AA1009769F714C06BA17CA18DA19EA182
:1012D0000E944100DC01CB019AA389A389A19AA1B4
:1012E0009E8F8D8F8D8D9E8D0197F1F79E8F8D8FA7
:1012F0008CE00E946B0A80E090E0A0E0B0E4898F6F
:101300009A8FAB8FBC8F698D7A8D8B8D9C8D20E0F1
:1013100030E04AEF54E40E941702DC01CB018D8BD0
:101320009E8BAF8BB88F6D897E898F89988D20E0D9
:1013300030E040E85FE30E94710388232CF481E0F1
:1013400090E09C8B8B8B3FC06D897E898F89988DB7
:1013500020E03FEF4FE757E40E94110318164CF5C9
:10136000698D7A8D8B8D9C8D20E030E040E251E4D8
:101370000E941702DC01CB01BC01CD010E9441009B
:10138000DC01CB019C8B8B8B0FC088EC90E09A8B9F
:10139000898B89899A890197F1F79A8B898B8B8937
:1013A0009C8901979C8B8B8B8B899C89009769F713
:1013B00014C06D897E898F89988D0E944100DC015F
:1013C000CB019C8B8B8B8B899C89988B8F878F858E
:1013D00098890197F1F7988B8F8781E00E946B0ABB
:1013E00080E090E0A0E0B0E48B879C87AD87BE876B
:1013F0006B857C858D859E8520E030E04AEF54E446
:101400000E941702DC01CB018F839887A987BA87D6
:101410006F81788589859A8520E030E040E85FE338
:101420000E94710388232CF481E090E09E838D83D9
:101430003FC06F81788589859A8520E03FEF4FE72F
:1014400057E40E94110318164CF56B857C858D8539
:101450009E8520E030E040E251E40E941702DC016A
:10146000CB01BC01CD010E944100DC01CB019E8378
:101470008D830FC088EC90E09C838B838B819C8153
:101480000197F1F79C838B838D819E8101979E83C9
:101490008D838D819E81009769F714C06F81788557
:1014A00089859A850E944100DC01CB019E838D8352
:1014B0008D819E819A83898389819A810197F1F731
:1014C0009A838983AA960FB6F894DEBF0FBECDBF6C
:1014D000CF91DF910895DF93CF93CDB7DEB72F97EC
:1014E0000FB6F894DEBF0FBECDBF8F8782E060E0FD
:1014F00040E00E949B0582E061E040E00E949B0585
:101500008F85982F917081E060E0492F0E949B05A4
:101510008F858695982F917081E061E0492F0E9418
:101520009B058F8586958695982F917081E062E066
:10153000492F0E949B058F85869586958695982FC5
:10154000917081E063E0492F0E949B058F85829511
:101550008F70982F917081E064E0492F0E949B0565
:101560008F85829586958770982F917081E065E0D0
:10157000492F0E949B058F8582958695869583705D
:10158000982F917081E066E0492F0E949B058F851E
:10159000982F991F9927991F81E067E0492F0E9492
:1015A0009B0582E062E041E00E949B0580E090E0C4
:1015B000A0E0B0E48B879C87AD87BE876B857C8578
:1015C0008D859E8520E030E04AEF54E40E941702AA
:1015D000DC01CB018F839887A987BA876F817885D3
:1015E00089859A8520E030E040E85FE30E9471033E
:1015F00088232CF481E090E09E838D833FC06F812F
:10160000788589859A8520E03FEF4FE757E40E946F
:10161000110318164CF56B857C858D859E8520E021
:1016200030E040E251E40E941702DC01CB01BC0132
:10163000CD010E944100DC01CB019E838D830FC050
:1016400088EC90E09C838B838B819C810197F1F7E0
:101650009C838B838D819E8101979E838D838D8159
:101660009E81009769F714C06F81788589859A8576
:101670000E944100DC01CB019E838D838D819E8180
:101680009A83898389819A810197F1F79A83898363
:1016900082E062E040E00E949B052F960FB6F8942E
:1016A000DEBF0FBECDBFCF91DF910895DF93CF9303
:1016B000CDB7DEB72F970FB6F894DEBF0FBECDBF04
:1016C0008F8782E060E041E00E949B0582E061E05C
:1016D00040E00E949B058F85982F917081E060E02B
:1016E000492F0E949B058F858695982F917081E0E8
:1016F00061E0492F0E949B058F8586958695982FDE
:10170000917081E062E0492F0E949B058F8586954C
:1017100086958695982F917081E063E0492F0E940D
:101720009B058F8582958F70982F917081E064E082
:10173000492F0E949B058F85829586958770982FEB
:10174000917081E065E0492F0E949B058F8582950D
:10175000869586958370982F917081E066E0492F79
:101760000E949B058F85982F991F9927991F81E0CB
:1017700067E0492F0E949B0582E062E041E00E9401
:101780009B0580E090E0A0E0B0E48B879C87AD876C
:10179000BE876B857C858D859E8520E030E04AEF95
:1017A00054E40E941702DC01CB018F839887A9873C
:1017B000BA876F81788589859A8520E030E040E896
:1017C0005FE30E94710388232CF481E090E09E8304
:1017D0008D833FC06F81788589859A8520E03FEFB2
:1017E0004FE757E40E94110318164CF56B857C8572
:1017F0008D859E8520E030E040E251E40E94170292
:10180000DC01CB01BC01CD010E944100DC01CB0118
:101810009E838D830FC088EC90E09C838B838B81AB
:101820009C810197F1F79C838B838D819E81019729
:101830009E838D838D819E81009769F714C06F818F
:10184000788589859A850E944100DC01CB019E83C1
:101850008D838D819E819A83898389819A81019765
:10186000F1F79A83898382E062E040E00E949B0561
:101870002F960FB6F894DEBF0FBECDBFCF91DF918C
:101880000895DF93CF93CDB7DEB761970FB6F89485
:10189000DEBF0FBECDBF998B888B1F8680C08F8522
:1018A000282F30E088899989FC01E20FF31F80819D
:1018B0000E94560B8F858F5F8F8780E090E0A0E0BD
:1018C000B0E48B879C87AD87BE876B857C858D85D3
:1018D0009E8520E030E04AEF54E40E941702DC01CC
:1018E000CB018F839887A987BA876F81788589858F
:1018F0009A8520E030E040E85FE30E94710388238E
:101900002CF481E090E09E838D833FC06F817885C9
:1019100089859A8520E03FEF4FE757E40E94110345
:1019200018164CF56B857C858D859E8520E030E012
:1019300040E251E40E941702DC01CB01BC01CD0161
:101940000E944100DC01CB019E838D830FC088EC97
:1019500090E09C838B838B819C810197F1F79C8322
:101960008B838D819E8101979E838D838D819E8146
:10197000009769F714C06F81788589859A850E94E0
:101980004100DC01CB019E838D838D819E819A83F2
:10199000898389819A810197F1F79A8389838F8559
:1019A000282F30E088899989FC01E20FF31F80819C
:1019B000882309F074CF61960FB6F894DEBF0FBE8E
:1019C000CDBFCF91DF910895DF93CF9300D0CDB7F6
:1019D000DEB789836A838981813029F48A818058BE
:1019E0000E946B0A07C08981823021F48A81805469
:1019F0000E946B0A0F900F90CF91DF910895DF93B3
:101A0000CF93CDB7DEB783E060E041E00E940C07E2
:101A100083E061E041E00E940C0783E062E041E086
:101A20000E940C0783E063E041E00E940C0783E022
:101A300064E040E00E940C0783E064E041E00E9423
:101A40009B0583E065E040E00E940C0783E065E0D1
:101A500041E00E949B0583E066E040E00E940C07A5
:101A600083E066E041E00E949B0583E067E040E0A0
:101A70000E940C0783E067E041E00E949B05CF9144
:101A8000DF910895DF93CF93CDB7DEB72A970FB6D6
:101A9000F894DEBF0FBECDBF198283E060E040E066
:101AA0000E949B0583E061E041E00E949B0583E08A
:101AB00062E041E00E949B0583E063E041E00E9418
:101AC0009B0583E064E00E948D06982F8981892B15
:101AD000898383E065E00E948D06882F90E0880F5F
:101AE000991F982F8981892B898383E066E00E9462
:101AF0008D06882F90E0880F991F880F991F982FC7
:101B00008981892B898383E067E00E948D06882F75
:101B100090E0880F991F880F991F880F991F982FA1
:101B20008981892B89838981282F30E03A87298709
:101B300089859A858B309105C9F029853A852C30A5
:101B4000310534F489859A858730910561F017C095
:101B500029853A852D30310561F089859A858E3049
:101B6000910551F00CC09FE2988763C123E028875C
:101B700060C132E038875DC181E088875AC119822F
:101B800083E060E041E00E949B0583E061E040E08B
:101B90000E949B0583E062E041E00E949B0583E098
:101BA00063E041E00E949B0583E064E00E948D06B3
:101BB000982F8981892B898383E065E00E948D06B7
:101BC000882F90E0880F991F982F8981892B89830E
:101BD00083E066E00E948D06882F90E0880F991FB1
:101BE000880F991F982F8981892B898383E067E06B
:101BF0000E948D06882F90E0880F991F880F991FEB
:101C0000880F991F982F8981892B89838981282F93
:101C100030E03F832E838E819F818B309105C9F008
:101C20002E813F812C30310534F48E819F818730A5
:101C3000910561F017C02E813F812D30310561F093
:101C40008E819F818E30910551F00CC09AE2988769
:101C5000F0C026E02887EDC035E03887EAC084E090
:101C60008887E7C0198283E060E041E00E949B051D
:101C700083E061E041E00E949B0583E062E040E098
:101C80000E949B0583E063E041E00E949B0583E0A6
:101C900064E00E948D06982F8981892B898383E0D7
:101CA00065E00E948D06882F90E0880F991F982F7D
:101CB0008981892B898383E066E00E948D06882FC5
:101CC00090E0880F991F880F991F982F8981892B81
:101CD000898383E067E00E948D06882F90E0880F5B
:101CE000991F880F991F880F991F982F8981892B19
:101CF00089838981282F30E03D832C838C819D81CD
:101D00008B309105C9F02C813D812C30310534F4A4
:101D10008C819D818730910561F017C02C813D81B8
:101D20002D30310561F08C819D818E30910551F00F
:101D30000CC09BE298877DC029E028877AC038E0F4
:101D4000388777C087E0888774C0198283E060E0B5
:101D500041E00E949B0583E061E041E00E949B0519
:101D600083E062E041E00E949B0583E063E040E0A5
:101D70000E949B0583E064E00E948D06982F898174
:101D8000892B898383E065E00E948D06882F90E08F
:101D9000880F991F982F8981892B898383E066E0BA
:101DA0000E948D06882F90E0880F991F880F991F39
:101DB000982F8981892B898383E067E00E948D06B3
:101DC000882F90E0880F991F880F991F880F991FFF
:101DD000982F8981892B89838981282F30E03B8343
:101DE0002A838A819B818B309105C9F02A813B81AE
:101DF0002C30310534F48A819B818730910561F064
:101E000016C02A813B812D30310561F08A819B818A
:101E10008E30910549F00BC09DE298870AC02DE3F2
:101E2000288707C0188605C033E2388702C08FEFC5
:101E3000888788852A960FB6F894DEBF0FBECDBF7F
:101E4000CF91DF910895DF93CF93CDB7DEB7E297BF
:101E50000FB6F894DEBF0FBECDBF84E68CA78AE034
:101E60008BA71AA619A618A61FA21EA21DA21CA205
:101E70001BA21AA283E0FE01BD96DF01682F1D920E
:101E80006A95E9F783E0FE01F096DF01682F1D9265
:101E90006A95E9F70E94FF0C0E94C20880E090E07A
:101EA000A0E0B0E4898F9A8FAB8FBC8F698D7A8D5B
:101EB0008B8D9C8D20E030E04AEF54E40E941702A5
:101EC000DC01CB018D8B9E8BAF8BB88F6D897E89AA
:101ED0008F89988D20E030E040E85FE30E94710335
:101EE00088232CF481E090E09C8B8B8B3FC06D8924
:101EF0007E898F89988D20E03FEF4FE757E40E945D
:101F0000110318164CF5698D7A8D8B8D9C8D20E010
:101F100030E040E251E40E941702DC01CB01BC0139
:101F2000CD010E944100DC01CB019C8B8B8B0FC04B
:101F300088EC90E09A8B898B89899A890197F1F7CF
:101F40009A8B898B8B899C8901979C8B8B8B8B8936
:101F50009C89009769F714C06D897E898F89988D57
:101F60000E944100DC01CB019C8B8B8B8B899C896F
:101F7000988B8F878F8598890197F1F7988B8F873A
:101F80008FEF8D8FCAC00E94420D8D8F8D8D83364D
:101F900079F481E00E946B0A8FEF8D8F1BA21AA249
:101FA0001AA619A619A218A21F8E1E8E18A6B9C0AD
:101FB0008D8D8F3F09F4B1C08D8D0E94560B80E04E
:101FC00090E0A0E2B1E48B879C87AD87BE876B85EC
:101FD0007C858D859E8520E030E04AEF54E40E94A8
:101FE0001702DC01CB018F839887A987BA876F819D
:101FF000788589859A8520E030E040E85FE30E949B
:10200000710388232CF481E090E09E838D833FC090
:102010006F81788589859A8520E03FEF4FE757E407
:102020000E94110318164CF56B857C858D859E8565
:1020300020E030E040E251E40E941702DC01CB01D5
:10204000BC01CD010E944100DC01CB019E838D8348
:102050000FC088EC90E09C838B838B819C810197DF
:10206000F1F79C838B838D819E8101979E838D8365
:102070008D819E81009769F714C06F81788589856D
:102080009A850E944100DC01CB019E838D838D8166
:102090009E819A83898389819A810197F1F79A8336
:1020A00089838D8D8B3249F08D8D8D3231F08D8D00
:1020B0008A3219F08D8D8B3229F48D8D8BA381E0BE
:1020C0008AA32BC08AA1882399F48D8D8D3381F04A
:1020D0008AA5282F30E08D8D482F4053CE018D9654
:1020E000FC01E20FF31F40838AA58F5F8AA715C00A
:1020F0008AA1813091F48D8D8D3379F08AA5282FB6
:1021000030E08D8D482F4053CE018D96FC01E20FBB
:10211000F31F408389A58F5F89A78D8D8D3309F0CB
:1021200032CF8DA5282F30E08CA5882F90E0289FF6
:10213000A001299F500D389F500D11248EA5282FE6
:1021400030E08BA5882F90E0DC012A9FC0012B9FF7
:10215000900D3A9F900D11249A01280F391F8FA5D9
:10216000882F90E0820F931F99A388A388A9282F16
:1021700030E08CA5882F90E0289FA001299F500D6A
:10218000389F500D112489A9282F30E08BA5882F66
:1021900090E0BC01269FC001279F900D369F900DB7
:1021A00011249A01280F391F8AA9882F90E0820FE5
:1021B000931F9F8F8E8F8BA1882F90E08B3291057C
:1021C00009F0ABCF88A19E8D692F0E94251188A7A9
:1021D00088A5882F90E028EE33E0B9010E944511D0
:1021E000CB012AE030E0B9010E9445118CA388A5FB
:1021F00094E6692F0E9439119AE0692F0E943911E3
:10220000892F8FA388A59AE0692F0E9439119AE03F
:10221000692F0E943911892F8EA388A59AE0692F12
:102220000E943911892F8DA38CA1805D0E94560BCD
:102230008FA1805D0E94560B8EA1805D0E94560B7F
:102240008DA1805D0E94560B68CFDF93CF9300D0A5
:102250000F92CDB7DEB78A836B8319829A818B8107
:10226000890F898389810F900F900F90CF91DF9113
:102270000895991B79E004C0991F961708F0961BE2
:10228000881F7A95C9F78095089597FB092E072630
:102290000AD077FD04D00CD006D000201AF4709537
:1022A00061957F4F0895F6F7909581959F4F08951A
:1022B000AA1BBB1B51E107C0AA1FBB1FA617B7076C
:1022C00010F0A61BB70B881F991F5A95A9F7809588
:1022D0009095BC01CD0108952F923F924F925F924D
:1022E0006F927F928F929F92AF92BF92CF92DF9226
:1022F000EF92FF920F931F93CF93DF93CDB7DEB78B
:10230000CA1BDB0B0FB6F894DEBF0FBECDBF09941E
:102310002A88398848885F846E847D848C849B8475
:10232000AA84B984C884DF80EE80FD800C811B8183
:10233000AA81B981CE0FD11D0FB6F894DEBF0FBEB2
:0A234000CDBFED010895F894FFCF22
:08234A0000000000000000008B
:00000001FF
