:100000000C942A000C943F000C943F000C944A007E
:100010000C943F000C943F000C943F000C943F0064
:100020000C943F000C943F000C943F000C943F0054
:100030000C943F000C943F000C943F000C943F0044
:100040000C943F000C943F000C943F000C943F0034
:100050000C943F0011241FBECFE5D8E0DEBFCDBF1A
:1000600010E0A0E6B0E0E8EBF0E002C005900D92F1
:10007000A236B107D9F70E9441000C945A000C94A3
:100080000000DF93CF93CDB7DEB780E090E0CF9153
:10009000DF9108951F920F920FB60F921124DF93F4
:1000A000CF93CDB7DEB7CF91DF910F900FBE0F90FA
:0800B0001F901895F894FFCF92
:0200B80008003E
:0100BA00083D
:0100BB000044
:00000001FF
