:100000000C942A000C943C000C943C000C943C0092
:100010000C943C000C943C000C943C000C943C0070
:100020000C943C000C943C000C943C000C94D303C6
:100030000C943C000C943C000C943C000C943C0050
:100040000C943C000C943C000C943C000C943C0040
:100050000C943C0011241FBECFE5D8E0DEBFCDBF1D
:1000600010E0A0E6B0E001C01D92AB36B107E1F7A9
:100070000E94AE030C9442040C940000DF93CF93D3
:1000800000D000D0CDB7DEB769837A838B839C83A1
:10009000E3E5F0E081E08083E2E5F0E01082AFE5A7
:1000A000B0E0EFE5F0E0808180688C93A9E5B0E0F6
:1000B000E9E5F0E0808181608C93109260001092FD
:1000C00061001092620010926300109264008981B6
:1000D0009A81AB81BC818093600090936100A09372
:1000E0006200B0936300809164008823E1F3109272
:1000F0006400A9E5B0E0E9E5F0E080818E7F8C93B3
:100100000F900F900F900F90CF91DF910895DF9394
:10011000CF9300D000D00F92CDB7DEB789836A832A
:100120004B838981282F30E03D832C838C819D81F6
:100130008130910509F447C02C813D812230310581
:100140002CF48C819D81009771F0CBC02C813D8176
:100150002230310509F467C08C819D81833091057F
:1001600009F491C0BEC08B818130A1F4ABE3B0E053
:10017000EBE3F0E08081482F8A81282F30E081E096
:1001800090E0022E02C0880F991F0A94E2F7842B98
:100190008C93A7C08B81882309F0A3C0ABE3B0E0A8
:1001A000EBE3F0E08081482F8A81282F30E081E066
:1001B00090E0022E02C0880F991F0A94E2F7809502
:1001C00084238C938EC08B818130A1F4A8E3B0E0AE
:1001D000E8E3F0E08081482F8A81282F30E081E039
:1001E00090E0022E02C0880F991F0A94E2F7842B38
:1001F0008C9377C08B81882309F073C0A8E3B0E0AB
:10020000E8E3F0E08081482F8A81282F30E081E008
:1002100090E0022E02C0880F991F0A94E2F78095A1
:1002200084238C935EC08B818130A1F4A5E3B0E080
:10023000E5E3F0E08081482F8A81282F30E081E0DB
:1002400090E0022E02C0880F991F0A94E2F7842BD7
:100250008C9347C08B81882309F043C0A5E3B0E0AD
:10026000E5E3F0E08081482F8A81282F30E081E0AB
:1002700090E0022E02C0880F991F0A94E2F7809541
:1002800084238C932EC08B818130A1F4A2E3B0E053
:10029000E2E3F0E08081482F8A81282F30E081E07E
:1002A00090E0022E02C0880F991F0A94E2F7842B77
:1002B0008C9317C08B818823A1F4A2E3B0E0E2E322
:1002C000F0E08081482F8A81282F30E081E090E0A3
:1002D000022E02C0880F991F0A94E2F780958423AA
:1002E0008C930F900F900F900F900F90CF91DF9104
:1002F0000895DF93CF9300D000D00F92CDB7DEB733
:1003000089836A838981282F30E03D832C834C8147
:100310005D814130510549F18C819D81823091058B
:1003200034F42C813D812115310561F057C04C8199
:100330005D814230510561F18C819D818330910551
:10034000D1F14CC0E9E3F0E08081282F30E08A81D0
:10035000882F90E0A90102C0559547958A95E2F74C
:10036000CA01582F51705B833AC0E6E3F0E0808108
:10037000282F30E08A81882F90E0A90102C055958E
:1003800047958A95E2F7CA01582F51705B8327C0C1
:10039000E3E3F0E08081282F30E08A81882F90E02D
:1003A000A90102C0559547958A95E2F7CA01582FD1
:1003B00051705B8314C0E0E3F0E08081282F30E0CF
:1003C0008A81882F90E0A90102C0559547958A95AA
:1003D000E2F7CA01582F51705B8301C01B828B81E9
:1003E0000F900F900F900F900F90CF91DF91089585
:1003F000DF93CF9300D000D00F92CDB7DEB78983C3
:100400006A834B838981282F30E03D832C838C8144
:100410009D818130910509F446C02C813D812230B7
:1004200031052CF48C819D81009771F0CAC02C811C
:100430003D812230310509F466C08C819D81833075
:10044000910509F490C0BDC08B818823A1F4AAE373
:10045000B0E0EAE3F0E08081482F8A81282F30E085
:1004600081E090E0022E02C0880F991F0A94E2F703
:10047000809584238C938B81813009F0A2C0AAE3FC
:10048000B0E0EAE3F0E08081482F8A81282F30E055
:1004900081E090E0022E02C0880F991F0A94E2F7D3
:1004A000842B8C938EC08B818823A9F4A7E3B0E0C2
:1004B000E7E3F0E08081482F8A81282F30E081E057
:1004C00090E0022E02C0880F991F0A94E2F78095EF
:1004D00084238C9376C08B81813009F072C0A7E3AE
:1004E000B0E0E7E3F0E08081482F8A81282F30E0F8
:1004F00081E090E0022E02C0880F991F0A94E2F773
:10050000842B8C935EC08B818823A9F4A4E3B0E094
:10051000E4E3F0E08081482F8A81282F30E081E0F9
:1005200090E0022E02C0880F991F0A94E2F780958E
:1005300084238C9346C08B81813009F042C0A4E3B0
:10054000B0E0E4E3F0E08081482F8A81282F30E09A
:1005500081E090E0022E02C0880F991F0A94E2F712
:10056000842B8C932EC08B818823A9F4A1E3B0E067
:10057000E1E3F0E08081482F8A81282F30E081E09C
:1005800090E0022E02C0880F991F0A94E2F780952E
:1005900084238C9316C08B81813099F4A1E3B0E061
:1005A000E1E3F0E08081482F8A81282F30E081E06C
:1005B00090E0022E02C0880F991F0A94E2F7842B64
:1005C0008C930F900F900F900F900F90CF91DF9121
:1005D0000895DF93CF9300D000D0CDB7DEB78983E5
:1005E0006A838981282F30E03C832B838B819C8117
:1005F00081309105D1F02B813C81223031052CF4E2
:100600008B819C81009761F01EC02B813C81223040
:10061000310581F08B819C818330910581F013C07D
:10062000EAE3F0E08A8180830EC0E7E3F0E08A81AC
:10063000808309C0E4E3F0E08A81808304C0E1E3C1
:10064000F0E08A8180830F900F900F900F90CF91F0
:10065000DF910895DF93CF9300D000D0CDB7DEB700
:1006600089836A838981282F30E03C832B838B81A7
:100670009C8181309105D1F02B813C812230310564
:100680002CF48B819C81009761F01EC02B813C81F2
:100690002230310581F08B819C818330910581F07E
:1006A00013C0EBE3F0E08A8180830EC0E8E3F0E062
:1006B0008A81808309C0E5E3F0E08A81808304C0F9
:1006C000E2E3F0E08A8180830F900F900F900F900B
:1006D000CF91DF910895DF93CF9300D000D0CDB7B5
:1006E000DEB789838981282F30E03C832B838B817F
:1006F0009C8181309105D1F02B813C8122303105E4
:100700002CF48B819C81009761F01FC02B813C8170
:100710002230310581F08B819C818330910581F0FD
:1007200014C0E9E3F0E090819A8310C0E6E3F0E0C2
:1007300020812A830BC0E3E3F0E030813A8306C0D6
:10074000E0E3F0E080818A8301C01A828A810F9001
:100750000F900F900F90CF91DF910895DF93CF937B
:10076000CDB7DEB781E062E041E00E94F80181E0B0
:1007700062E040E00E94870081E062E041E00E9488
:10078000870068E873E180E090E00E943E0081E02D
:1007900062E040E00E94870068E873E180E090E05A
:1007A0000E943E00E9CF1F920F920FB60F921124C4
:1007B0002F933F934F935F938F939F93AF93BF93E9
:1007C000EF93FF93DF93CF93CDB7DEB780916900AE
:1007D00090916A00019690936A00809369008091DD
:1007E000690090916A0080329105D9F510926A00F3
:1007F00010926900E2E5F0E080EC80838091650072
:1008000090916600A0916700B09168000196A11DCB
:10081000B11D8093650090936600A0936700B0932C
:10082000680020916500309166004091670050910A
:1008300068008091600090916100A0916200B09189
:100840006300281739074A075B0759F410926500BF
:1008500010926600109267001092680081E0809309
:100860006400CF91DF91FF91EF91BF91AF919F9184
:100870008F915F914F913F912F910F900FBE0F90ED
:080880001F901895F894FFCFBA
:00000001FF
