:100000000C942A000C9447000C9447000C94470071
:100010000C9447000C9447000C9447000C94A70BD9
:100020000C9447000C9447000C9447000C94470034
:100030000C9447000C9447000C9447000C94470024
:100040000C9447000C9447000C9447000C94470014
:100050000C94470011241FBECFE5D8E0DEBFCDBF12
:1000600010E0A0E6B0E0E8E0F1E302C005900D92F8
:10007000A437B107D9F713E0A4E7B0E001C01D929F
:10008000AF3FB107E1F70E9474080C9482180C94FA
:100090000000DF93CF9300D000D00F92CDB7DEB732
:1000A00089836A834B838981282F30E03D832C83A9
:1000B0008C819D818130910509F447C02C813D815F
:1000C000223031052CF48C819D81009771F0CBC0DA
:1000D0002C813D812230310509F467C08C819D81DE
:1000E0008330910509F491C0BEC08B818130A1F4A9
:1000F000ABE3B0E0EBE3F0E08081482F8A81282F6A
:1001000030E081E090E0022E02C0880F991F0A942F
:10011000E2F7842B8C93A7C08B81882309F0A3C0BE
:10012000ABE3B0E0EBE3F0E08081482F8A81282F39
:1001300030E081E090E0022E02C0880F991F0A94FF
:10014000E2F7809584238C938EC08B818130A1F45B
:10015000A8E3B0E0E8E3F0E08081482F8A81282F0F
:1001600030E081E090E0022E02C0880F991F0A94CF
:10017000E2F7842B8C9377C08B81882309F073C0BE
:10018000A8E3B0E0E8E3F0E08081482F8A81282FDF
:1001900030E081E090E0022E02C0880F991F0A949F
:1001A000E2F7809584238C935EC08B818130A1F42B
:1001B000A5E3B0E0E5E3F0E08081482F8A81282FB5
:1001C00030E081E090E0022E02C0880F991F0A946F
:1001D000E2F7842B8C9347C08B81882309F043C0BE
:1001E000A5E3B0E0E5E3F0E08081482F8A81282F85
:1001F00030E081E090E0022E02C0880F991F0A943F
:10020000E2F7809584238C932EC08B818130A1F4FA
:10021000A2E3B0E0E2E3F0E08081482F8A81282F5A
:1002200030E081E090E0022E02C0880F991F0A940E
:10023000E2F7842B8C9317C08B818823A1F4A2E36F
:10024000B0E0E2E3F0E08081482F8A81282F30E09F
:1002500081E090E0022E02C0880F991F0A94E2F715
:10026000809584238C930F900F900F900F900F9098
:10027000CF91DF910895DF93CF9300D000D00F92FC
:10028000CDB7DEB789836A838981282F30E03D832B
:100290002C834C815D814130510549F18C819D81D8
:1002A0008230910534F42C813D812115310561F0B6
:1002B00057C04C815D814230510561F18C819D8137
:1002C00083309105D1F14CC0E9E3F0E08081282F23
:1002D00030E08A81882F90E0A90102C055954795AA
:1002E0008A95E2F7CA01582F51705B833AC0E6E362
:1002F000F0E08081282F30E08A81882F90E0A901EA
:1003000002C0559547958A95E2F7CA01582F51705A
:100310005B8327C0E3E3F0E08081282F30E08A810F
:10032000882F90E0A90102C0559547958A95E2F77C
:10033000CA01582F51705B8314C0E0E3F0E0808164
:10034000282F30E08A81882F90E0A90102C05595BE
:1003500047958A95E2F7CA01582F51705B8301C017
:100360001B828B810F900F900F900F900F90CF9169
:10037000DF910895DF93CF9300D000D00F92CDB7D7
:10038000DEB789836A834B838981282F30E03D83E0
:100390002C838C819D818130910509F446C02C818C
:1003A0003D81223031052CF48C819D81009771F0C4
:1003B000CAC02C813D812230310509F466C08C8190
:1003C0009D818330910509F490C0BDC08B81882345
:1003D000A1F4AAE3B0E0EAE3F0E08081482F8A814B
:1003E000282F30E081E090E0022E02C0880F991F94
:1003F0000A94E2F7809584238C938B81813009F0F5
:10040000A2C0AAE3B0E0EAE3F0E08081482F8A814D
:10041000282F30E081E090E0022E02C0880F991F63
:100420000A94E2F7842B8C938EC08B818823A9F4E5
:10043000A7E3B0E0E7E3F0E08081482F8A81282F2E
:1004400030E081E090E0022E02C0880F991F0A94EC
:10045000E2F7809584238C9376C08B81813009F0FC
:1004600072C0A7E3B0E0E7E3F0E08081482F8A8123
:10047000282F30E081E090E0022E02C0880F991F03
:100480000A94E2F7842B8C935EC08B818823A9F4B5
:10049000A4E3B0E0E4E3F0E08081482F8A81282FD4
:1004A00030E081E090E0022E02C0880F991F0A948C
:1004B000E2F7809584238C9346C08B81813009F0CC
:1004C00042C0A4E3B0E0E4E3F0E08081482F8A81F9
:1004D000282F30E081E090E0022E02C0880F991FA3
:1004E0000A94E2F7842B8C932EC08B818823A9F485
:1004F000A1E3B0E0E1E3F0E08081482F8A81282F7A
:1005000030E081E090E0022E02C0880F991F0A942B
:10051000E2F7809584238C9316C08B81813099F407
:10052000A1E3B0E0E1E3F0E08081482F8A81282F49
:1005300030E081E090E0022E02C0880F991F0A94FB
:10054000E2F7842B8C930F900F900F900F900F90E9
:10055000CF91DF910895DF93CF9300D000D0CDB736
:10056000DEB789836A838981282F30E03C832B831F
:100570008B819C8181309105D1F02B813C8122308F
:1005800031052CF48B819C81009761F01EC02B817A
:100590003C812230310581F08B819C818330910533
:1005A00081F013C0EAE3F0E08A8180830EC0E7E3C4
:1005B000F0E08A81808309C0E4E3F0E08A818083EF
:1005C00004C0E1E3F0E08A8180830F900F900F90E8
:1005D0000F90CF91DF910895DF93CF9300D000D09B
:1005E000CDB7DEB789836A838981282F30E03C83C9
:1005F0002B838B819C8181309105D1F02B813C81B3
:10060000223031052CF48B819C81009761F01EC053
:100610002B813C812230310581F08B819C8183309C
:10062000910581F013C0EBE3F0E08A8180830EC076
:10063000E8E3F0E08A81808309C0E5E3F0E08A81A5
:10064000808304C0E2E3F0E08A8180830F900F9002
:100650000F900F90CF91DF910895DF93CF9300D04B
:1006600000D0CDB7DEB789838981282F30E03C8365
:100670002B838B819C8181309105D1F02B813C8132
:10068000223031052CF48B819C81009761F01FC0D2
:100690002B813C812230310581F08B819C8183301C
:1006A000910581F014C0E9E3F0E090819A8310C0D5
:1006B000E6E3F0E020812A830BC0E3E3F0E0308141
:1006C0003A8306C0E0E3F0E080818A8301C01A82A9
:1006D0008A810F900F900F900F90CF91DF91089526
:1006E000DF93CF93CDB7DEB727970FB6F894DEBF71
:1006F0000FBECDBF9D838C836E834F838EE190E0D0
:100700000E94B9069A83898389819A81009709F4A6
:100710007AC08091740090917500009741F48981AE
:100720009A8190937500809374000E9445068E8193
:10073000823010F081E08E83E981FA81158E148E6B
:10074000E981FA818E81828FE981FA818F81838F9D
:10075000E981FA818C819D819183808389819A814D
:1007600002960E94530789819A810E960E94530730
:10077000E981FA8189819A8193878287E981FA8167
:1007800089819A81978B868B8E81282F30E040E07B
:1007900050E08FE090E0A0E0B0E0821B930BA40B50
:1007A000B50BE981FA8186879787A08BB18BE981A8
:1007B000FA81928D80917600891728F4E981FA8177
:1007C000828D80937600E981FA81828D482F50E0F6
:1007D000CA01880F991F9C01220F331F220F331F5C
:1007E000820F931F840F951FAC014D575F4F898176
:1007F0009A819C012E5F3F4FCA01B9010E94630795
:1008000081E08B8302C08FEF8B838B8127960FB69D
:10081000F894DEBF0FBECDBFCF91DF910895DF9377
:10082000CF93CDB7DEB72A970FB6F894DEBF0FBED1
:10083000CDBF6D837E838F8398875A8749872091A8
:100840007700309178004091790050917A008D8145
:100850009E81AF81B885820F931FA41FB51F898326
:100860009A83AB83BC83809174009091750002964B
:100870000E942B08E0917400F091750089819A81A3
:10088000AB81BC8182839383A483B583209177005D
:10089000309178004091790050917A0089819A8155
:1008A000AB81BC8182179307A407B50770F48091D0
:1008B000B1009091B20020917400309175002E5FCC
:1008C0003F4FB9010E94AF070DC08091AF009091DA
:1008D000B00020917400309175002E5F3F4FB90138
:1008E0000E94AF0789859A85009761F08091740016
:1008F000909175009C01225F3F4F89859A85B901CF
:100900000E94AF072A960FB6F894DEBF0FBECDBF88
:10091000CF91DF910895DF93CF9300D0CDB7DEB7AD
:100920003DC0F894E091BA00F091BB0080859185BC
:100930009A83898389819A810E960E942B087894E4
:1009400089819A8102960E942B08E981FA81928D11
:1009500080917600891728F4E981FA81828D80934D
:100960007600E981FA81828D482F50E0CA01880F14
:10097000991F9C01220F331F220F331F820F931FD9
:10098000840F951FAC014D575F4F89819A819C015F
:100990002E5F3F4FCA01B9010E9463078091B300E7
:1009A000882309F0BECF0F900F90CF91DF9108956B
:1009B000DF93CF9300D000D0CDB7DEB70E946B138A
:1009C000DC01CB0120917B0030917C0040917D00C7
:1009D00050917E00821B930BA40BB50B80937F007C
:1009E00090938000A0938100B0938200AAC0809170
:1009F000770090917800A0917900B0917A000196EB
:100A0000A11DB11D8093770090937800A093790089
:100A1000B0937A0080917F0090918000A091810036
:100A2000B09182000197A109B10980937F00909352
:100A30008000A0938100B093820080917700909114
:100A40007800A0917900B0917A000097A105B105D6
:100A500009F06FC08091AF009091B0009A838983B4
:100A60008091B1009091B2009093B0008093AF005C
:100A700089819A819093B2008093B1005AC0E0912D
:100A8000AF00F091B0000780F085E02D8085918562
:100A90009C838B83EB81FC8122813381448155814E
:100AA0008091770090917800A0917900B0917A00C0
:100AB00082179307A407B50708F443C0F8948B8105
:100AC0009C8102960E942B08EB81FC81808D918D88
:100AD000009729F08B819C810E960E942B087894B8
:100AE000EB81FC81928D80917600891728F4EB814F
:100AF000FC81828D80937600EB81FC81828D482F72
:100B000050E0CA01880F991F9C01220F331F220F4A
:100B1000331F820F931F840F951FAC014D575F4FFA
:100B20008B819C819C012E5F3F4FCA01B9010E94BD
:100B30006307E091AF00F091B0008081882309F055
:100B40009ECF80917F0090918000A0918100B09114
:100B500082000097A105B10509F049CF8091770087
:100B600090917800A0917900B0917A0080937B00F9
:100B700090937C00A0937D00B0937E000F900F9027
:100B80000F900F90CF91DF910895DF93CF9300D016
:100B9000CDB7DEB70E948B040E94D8040AC08091B2
:100BA0007600882309F46CC0809176008150809390
:100BB000760080917600482F50E0CA01880F991F77
:100BC0009C01220F331F220F331F820F931F840FAC
:100BD000951FFC01ED57FF4F8081882301F3809121
:100BE0007600482F50E0CA01880F991F9C01220F00
:100BF000331F220F331F820F931F840F951F8D57B2
:100C00009F4F9A838983E981FA810180F281E02DE7
:100C100084819581E981FA8192838183E981FA81D6
:100C20002181328189819A8103962817390759F4E5
:100C3000E981FA810180F281E02D84819581E98149
:100C4000FA8192838183E981FA810180F281E02D2A
:100C5000808591859093750080937400E091740075
:100C6000F0917500408151818091740090917500E0
:100C7000E0917400F0917500238D622FFA010995BF
:100C80000F900F90CF91DF910895DF93CF930F9244
:100C9000CDB7DEB7198216C08981482F50E0CA014E
:100CA000880F991F9C01220F331F220F331F820FC1
:100CB000931F840F951F8D579F4F0E942507898191
:100CC0008F5F89838981823038F389E990E00E94BF
:100CD000250784EA90E00E94250783EB90E00E94BC
:100CE000250789E990E09093B0008093AF0084EAF3
:100CF00090E09093B2008093B1000F90CF91DF917C
:100D00000895DF93CF9300D000D00F92CDB7DEB718
:100D10009D838C83EC81FD810780F085E02D8085AB
:100D200091859B838A838A819B810E960E942B08E2
:100D30008A819B819C01225F3F4F83EB90E0B90148
:100D40000E946307EA81FB81928DE0917400F0912B
:100D50007500828D981718F081E0898301C019828F
:100D600089810F900F900F900F900F90CF91DF918E
:100D70000895DF93CF9300D000D0CDB7DEB79C832A
:100D80008B831A8219820E94D2128091BE009091A8
:100D9000BF002B813C81820F931F22E08835920790
:100DA00018F52091BE003091BF008B819C81280FE7
:100DB000391F8091BE009091BF0082179307A0F465
:100DC0008091BE009091BF0080549F4F9A83898389
:100DD0002091BE003091BF008B819C81820F931FB8
:100DE0009093BF008093BE000E94DE1289819A8199
:100DF0000F900F900F900F90CF91DF910895DF9398
:100E0000CF9300D0CDB7DEB79A8389830F900F9030
:100E1000CF91DF910895DF93CF93CDB7DEB71092D6
:100E2000BF001092BE00CF91DF910895DF93CF9362
:100E3000CDB7DEB72091BE003091BF0088E592E0CB
:100E4000821B930BCF91DF910895DF93CF9300D056
:100E5000CDB7DEB79A83898389819A810396E98128
:100E6000FA8192838183E981FA818FEF9FEFAFEF5F
:100E7000BFEF83839483A583B68389819A81039688
:100E8000E981FA819087878389819A810396E98134
:100E9000FA8192878187E981FA8110820F900F9001
:100EA000CF91DF910895DF93CF9300D0CDB7DEB718
:100EB0009A838983E981FA81138612860F900F90B5
:100EC000CF91DF910895DF93CF9300D000D000D071
:100ED000CDB7DEB79C838B837E836D83EB81FC81F2
:100EE000818192819A838983E981FA8184819581C4
:100EF000ED81FE8195838483EB81FC8181819281E8
:100F0000ED81FE8197838683E981FA810480F581F2
:100F1000E02D8D819E81978386838D819E81E981DD
:100F2000FA81958384838D819E81EB81FC819283FC
:100F30008183ED81FE818B819C8193878287EB8108
:100F4000FC8180818F5FEB81FC81808326960FB6C8
:100F5000F894DEBF0FBECDBFCF91DF910895DF9330
:100F6000CF93CDB7DEB72A970FB6F894DEBF0FBE8A
:100F7000CDBF98878F837A876987E985FA858081D5
:100F80009181A281B38189839A83AB83BC83898158
:100F90009A81AB81BC818F3F2FEF92072FEFA20781
:100FA0002FEFB20739F4EF81F885818592859E8312
:100FB0008D831EC08F81988503969E838D8306C086
:100FC000ED81FE81848195819E838D83ED81FE81FB
:100FD0000480F581E02D2081318142815381898116
:100FE0009A81AB81BC8182179307A407B50740F7AC
:100FF000ED81FE8184819581E985FA8595838483DD
:10100000E985FA850480F581E02D89859A859783A5
:101010008683E985FA858D819E819783868389857C
:101020009A85ED81FE8195838483E985FA858F8198
:10103000988593878287EF81F88580818F5FEF8124
:10104000F88580832A960FB6F894DEBF0FBECDBF19
:10105000CF91DF910895DF93CF9300D000D0CDB72B
:10106000DEB79C838B83EB81FC81A481B581EB810E
:10107000FC818681978117969C938E931697EB81BE
:10108000FC81A681B781EB81FC81848195811596D5
:101090009C938E931497EB81FC81828593859A8330
:1010A0008983E981FA81218132818B819C81281792
:1010B000390741F4EB81FC8186819781E981FA81CE
:1010C00092838183EB81FC8113861286E981FA8108
:1010D00080818150E981FA8180830F900F900F9079
:1010E0000F90CF91DF910895AF92BF92CF92DF9290
:1010F000EF92FF920F93DF93CF93CDB7DEB781E0EE
:101100006FEF0E94AB0281E060E041E00E94BA0113
:1011100020E630E089EA98E0EDEFF3E0B9014CE336
:1011200050E020E030E001E07F01CC24DD24AA245F
:10113000BB240E9441100E948B1280E090E0CF916E
:10114000DF910F91FF90EF90DF90CF90BF90AF9025
:101150000895DF93CF93CDB7DEB72A970FB6F894F3
:10116000DEBF0FBECDBF9A87898784EF91E0A0E0F4
:10117000B0E089839A83AB83BC83A8E3B0E0E8E363
:10118000F0E0908181E089278C930E946B13DC0151
:10119000CB018D839E83AF83B887CE0105962981CD
:1011A0003A814B815C81BA01A9010E949411E5CF7B
:1011B000DF93CF93CDB7DEB728970FB6F894DEBF95
:1011C0000FBECDBF9C838B837E836D8358874F83F7
:1011D000EB81FC8181E180838B819C8101979C83E1
:1011E0008B83EB81FC8182E280838B819C810197E0
:1011F0009C838B83EB81FC8183E380838B819C8147
:1012000001979C838B838D819E819A8389838981B9
:10121000EB81FC8180838B819C8101979C838B83F4
:1012200089819A81892F99279A8389838981EB8182
:10123000FC8180838B819C8101979C838B83EB81D4
:10124000FC8110828B819C8101979C838B83EB8135
:10125000FC8180E880838B819C8101979C838B83B8
:10126000EB81FC8110828B819C8101979C838B8315
:10127000EB81FC8182E080838B819C8101979C8340
:101280008B83EB81FC8183E080838B819C81019740
:101290009C838B83EB81FC8184E080838B819C81A8
:1012A00001979C838B83EB81FC8185E080838B811C
:1012B0009C8101979C838B83EB81FC8186E08083FA
:1012C0008B819C8101979C838B83EB81FC8187E0E0
:1012D00080838B819C8101979C838B83EB81FC8134
:1012E00088E080838B819C8101979C838B83EB8139
:1012F000FC8189E080838B819C8101979C838B8317
:10130000EB81FC8180E180838B819C8101979C83B0
:101310008B83EB81FC8181E180838B819C810197B0
:101320009C838B83EB81FC8182E180838B819C8118
:1013300001979C838B83EB81FC8183E180838B818C
:101340009C8101979C838B83EB81FC8184E180836A
:101350008B819C8101979C838B83EB81FC8185E150
:1013600080838B819C8101979C838B83EB81FC81A3
:1013700086E180838B819C8101979C838B83EB81A9
:10138000FC8187E180838B819C8101979C838B8387
:10139000EB81FC8188E180838B819C8101979C8318
:1013A0008B83EB81FC8189E180838B819C81019718
:1013B0009C838B83EB81FC8180E280838B819C8189
:1013C00001979C838B83EB81FC8181E280838B81FD
:1013D0009C8101979C838B83EB81FC8182E28083DB
:1013E0008B819C8101979C838B83EB81FC8183E2C1
:1013F00080838B819C8101979C838B838F819885CF
:101400009A8389838981EB81FC8180838B819C8194
:1014100001979C838B8389819A81892F99279A834D
:1014200089838981EB81FC8180838B819C810197F9
:101430009C838B83EB81FC8186E280838B819C8102
:1014400001979C838B83EB81FC8187E280838B8176
:101450009C8101979C838B83EB81FC8188E2808354
:101460008B819C8101979C838B83EB81FC8189E23A
:1014700080838B819C8101979C838B83EB81FC8192
:1014800080E380838B819C8101979C838B83EB819C
:10149000FC8181E380838B819C8101979C838B837A
:1014A0008B819C8128960FB6F894DEBF0FBECDBF0E
:1014B000CF91DF910895DF93CF93CDB7DEB70E9430
:1014C0004B0BA0911803B0911903CD91CDBFDD91C5
:1014D000DEBFFF91EF91DF91CF91BF91AF919F91CF
:1014E0008F917F916F915F914F913F912F911F91BC
:1014F0000F91FF90EF90DF90CF90BF90AF909F90B3
:101500008F907F906F905F904F903F902F901F90A3
:101510000F900FBE0F90089581E0CF91DF91089555
:10152000DF93CF93CDB7DEB7CF91DF9108950F92C0
:101530000FB6F8940F921F9211242F923F924F9260
:101540005F926F927F928F929F92AF92BF92CF9253
:10155000DF92EF92FF920F931F932F933F934F933E
:101560005F936F937F938F939F93AF93BF93CF932B
:10157000DF93EF93FF93A0911803B09119030DB679
:101580000D920EB60D920E94D414A0911803B09142
:101590001903CD91CDBFDD91DEBFFF91EF91DF91BA
:1015A000CF91BF91AF919F918F917F916F915F91FB
:1015B0004F913F912F911F910F91FF90EF90DF90EE
:1015C000CF90BF90AF909F908F907F906F905F90E3
:1015D0004F903F902F901F900F900FBE0F90089547
:1015E0000F920FB6F8940F921F9211242F923F92F0
:1015F0004F925F926F927F928F929F92AF92BF9223
:10160000CF92DF92EF92FF920F931F932F933F930E
:101610004F935F936F937F938F939F93AF93BF93FA
:10162000CF93DF93EF93FF93A0911803B091190329
:101630000DB60D920EB60D920E94BA130E94D414EC
:10164000A0911803B0911903CD91CDBFDD91DEBFFC
:10165000FF91EF91DF91CF91BF91AF919F918F91CA
:101660007F916F915F914F913F912F911F910F91BA
:10167000FF90EF90DF90CF90BF90AF909F908F90B2
:101680007F906F905F904F903F902F901F900F90A2
:101690000FBE0F900895DF93CF9300D000D000D0FD
:1016A000CDB7DEB780E49FE1A0E0B0E08B839C8300
:1016B000AD83BE838B819C81AD81BE81689415F81A
:1016C000B695A795979587951694D1F78B839C83AC
:1016D000AD83BE838B819C81AD81BE810197A109C1
:1016E000B1098B839C83AD83BE838B8189838B817E
:1016F0009C81AD81BE81892F9A2FAB2FBB278B8315
:101700009C83AD83BE838B818A83EBE4F0E08A8186
:101710008083EAE4F0E0898180838BE08983EEE4D2
:10172000F0E089818083E9E5F0E080818983898127
:1017300080618983E9E5F0E08981808326960FB690
:10174000F894DEBF0FBECDBFCF91DF9108950E9408
:10175000F00A1895DF93CF93CDB7DEB728970FB671
:10176000F894DEBF0FBECDBF8F8368871A821982BF
:101770008F81882309F48CC083E290E00E94B9062F
:101780009E838D838D819E81009709F481C08F8116
:10179000282F30E08885882F90E0AC01249FC0017D
:1017A000259F900D349F900D112401969C838B836F
:1017B0008B819C810E94B906ED81FE81918380839B
:1017C000ED81FE8180819181009709F45DC0ED81FA
:1017D000FE81408151818F81282F30E08885882FBC
:1017E00090E0BC01269FC001279F900D369F900D71
:1017F0001124840F951FED81FE8193838283ED81F7
:10180000FE81168EED81FE8180819181ED81FE81C8
:1018100095838483ED81FE81408151818F81882F62
:1018200090E09C01215030408885882F90E0BC01D9
:10183000269FC001279F900D369F900D1124840F85
:10184000951FED81FE8197838683ED81FE818F81D7
:10185000878FED81FE81888580A3ED81FE818FEFEA
:1018600081A3ED81FE818FEF82A38D819E810896F9
:101870000E9425078D819E8143960E9425078D81B8
:101880009E819A83898304C08D819E810E94FF0678
:1018900089819A8128960FB6F894DEBF0FBECDBF1E
:1018A000CF91DF9108950F93DF93CF93CDB7DEB73C
:1018B00060970FB6F894DEBF0FBECDBF98878F83B9
:1018C0007A8769872B873C874D875E870F871982C8
:1018D0000FB6F8940F92EF81F885968DEF81F88519
:1018E000878D9817D8F48F81988529853A85B90115
:1018F0004F850E94A40EEF81F8858389882349F0E3
:101900008F81988543960E948915813011F40E9439
:10191000970A0F900FBE81E0888B63C08B859C85F2
:10192000AD85BE850097A105B10521F40F900FBECE
:10193000188A57C08981882331F4CE0102960E940B
:10194000F41581E089830F900FBE0E94D2120FB66A
:10195000F8940F92EF81F88581A18F3F19F4EF8100
:10196000F88511A2EF81F88582A18F3F19F4EF81EC
:10197000F88512A20F900FBECE0102969E01255F40
:101980003F4FB9010E941316882321F58F81988556
:101990000E9408108823B9F08F81988508962B85BE
:1019A0003C854D855E85BA01A9010E9440158F8155
:1019B00098850E94810F0E94DE12882309F088CF4B
:1019C0000E94970A85CF8F8198850E94810F0E947F
:1019D000DE127ECF8F8198850E94810F0E94DE12D9
:1019E000188A888960960FB6F894DEBF0FBECDBF07
:1019F000CF91DF910F910895DF93CF93CDB7DEB7ED
:101A000029970FB6F894DEBF0FBECDBF9C838B83A2
:101A10007E836D8358874F8329871982EB81FC81F0
:101A2000968DEB81FC81878D981740F58B819C8189
:101A30002D813E81B90149850E94A40EEB81FC8174
:101A400082A18F3F89F4EB81FC818389882399F0FF
:101A50008B819C8143960E948915882361F0EF81D8
:101A6000F88581E0808307C0EB81FC8182A18F5FD4
:101A7000EB81FC8182A381E08A8301C01A828A8182
:101A800029960FB6F894DEBF0FBECDBFCF91DF9180
:101A900008950F93DF93CF93CDB7DEB762970FB65C
:101AA000F894DEBF0FBECDBF9A8789877C876B878E
:101AB0002D873E874F87588B098B1B820FB6F89472
:101AC0000F92E985FA85868D882309F43FC0E98560
:101AD000FA85868197819A83898389859A852B8562
:101AE0003C85B9010E94390F89898823B1F4E985C1
:101AF000FA85868D8150E985FA85868FE985FA8594
:101B000080858823F1F089859A8508960E94891539
:101B10008130B9F40E94970A14C0E985FA85898159
:101B20009A8197838683E985FA858389882349F09A
:101B300089859A8543960E948915882311F00E9411
:101B4000970A0F900FBE81E08A8B63C08D859E85BA
:101B5000AF85B8890097A105B10521F40F900FBE9C
:101B60001A8A57C08B81882331F4CE0104960E94D3
:101B7000F41581E08B830F900FBE0E94D2120FB636
:101B8000F8940F92E985FA8581A18F3F19F4E985D0
:101B9000FA8511A2E985FA8582A18F3F19F4E985BA
:101BA000FA8512A20F900FBECE0104969E01235F0C
:101BB0003F4FB9010E941316882321F589859A8524
:101BC0000E94D50F8823B9F089859A8543962D8583
:101BD0003E854F855889BA01A9010E944015898523
:101BE0009A850E94810F0E94DE12882309F066CF39
:101BF0000E94970A63CF89859A850E94810F0E946F
:101C0000DE125CCF89859A850E94810F0E94DE12C8
:101C10001A8A8A8962960FB6F894DEBF0FBECDBFCE
:101C2000CF91DF910F910895DF93CF93CDB7DEB7BA
:101C300028970FB6F894DEBF0FBECDBF9C838B8371
:101C40007E836D8358874F831982EB81FC81868D5B
:101C5000882371F18B819C812D813E81B9010E9485
:101C6000390FEB81FC81868D8150EB81FC81868F61
:101C7000EB81FC8181A18F3F89F4EB81FC81808520
:101C8000882399F08B819C8108960E94891588236E
:101C900061F0EF81F88581E0808307C0EB81FC81F2
:101CA00081A18F5FEB81FC8181A381E08A8301C0E8
:101CB0001A828A8128960FB6F894DEBF0FBECDBF78
:101CC000CF91DF910895DF93CF9300D00F92CDB7DE
:101CD000DEB79B838A830FB6F8940F92EA81FB816B
:101CE000868D89830F900FBE89810F900F900F9082
:101CF000CF91DF910895DF93CF9300D00F92CDB7AE
:101D0000DEB79B838A83EA81FB81868D8983898103
:101D10000F900F900F90CF91DF910895DF93CF93A5
:101D200000D0CDB7DEB79A838983E981FA818081BB
:101D300091810E94FF0689819A810E94FF060F907F
:101D40000F90CF91DF910895DF93CF9300D000D013
:101D50000F92CDB7DEB79A8389837C836B834D83E3
:101D6000E981FA8180A1882309F474C08D818823D8
:101D700099F5E981FA8164817581E981FA8180A10F
:101D8000482F50E02B813C81CB01B9010E946318A0
:101D9000E981FA8124813581E981FA8180A1882F46
:101DA00090E0820F931FE981FA8195838483E98112
:101DB000FA8124813581E981FA8182819381281712
:101DC000390708F447C0E981FA8180819181E9816E
:101DD000FA81958384833EC0E981FA8166817781A7
:101DE000E981FA8180A1482F50E02B813C81CB0111
:101DF000B9010E946318E981FA8126813781E9815E
:101E0000FA8180A1882F90E0909581959F4F820F55
:101E1000931FE981FA8197838683E981FA8126817C
:101E20003781E981FA81808191812817390790F4FF
:101E3000E981FA8122813381E981FA8180A1882FA9
:101E400090E0909581959F4F820F931FE981FA81D1
:101E500097838683E981FA81868D8F5FE981FA8194
:101E6000868F0F900F900F900F900F90CF91DF9172
:101E70000895DF93CF9300D000D0CDB7DEB79A831B
:101E800089837C836B83E981FA81808191810097CA
:101E900089F1E981FA8126813781E981FA8180A17E
:101EA000882F90E0820F931FE981FA8197838683C0
:101EB000E981FA8126813781E981FA8182819381E2
:101EC0002817390740F0E981FA8180819181E98101
:101ED000FA8197838683E981FA8146815781E98176
:101EE000FA8180A1282F30E08B819C81BA01A90161
:101EF0000E9463180F900F900F900F90CF91DF9179
:101F00000895DF93CF9300D0CDB7DEB79A8389834E
:101F10000FB6F8940F9215C0E981FA81838988235E
:101F2000A9F089819A8143960E948915882311F02E
:101F30000E94A416E981FA8182A18150E981FA8187
:101F400082A3E981FA8182A1181634F3E981FA812A
:101F50008FEF82A30F900FBE0FB6F8940F9215C0AB
:101F6000E981FA8180858823A9F089819A81089680
:101F70000E948915882311F00E94A416E981FA8134
:101F800081A18150E981FA8181A3E981FA8181A14E
:101F9000181634F3E981FA818FEF81A30F900FBEF9
:101FA0000F900F90CF91DF910895DF93CF9300D0E2
:101FB0000F92CDB7DEB79B838A830FB6F8940F924A
:101FC000EA81FB81868D1982882311F481E089835F
:101FD0000F900FBE89810F900F900F90CF91DF91DE
:101FE0000895DF93CF9300D00F92CDB7DEB79B83D8
:101FF0008A83EA81FB81868D1982882311F481E02E
:10200000898389810F900F900F90CF91DF91089570
:10201000DF93CF9300D00F92CDB7DEB79B838A8337
:102020000FB6F8940F92EA81FB81968DEA81FB81CD
:10203000878D1982981711F481E089830F900FBE64
:1020400089810F900F900F90CF91DF910895DF93CA
:10205000CF9300D00F92CDB7DEB79B838A83EA81FE
:10206000FB81968DEA81FB81878D1982981711F487
:1020700081E0898389810F900F900F90CF91DF913C
:102080000895AF92BF92CF92DF92EF92FF920F939B
:102090001F93DF93CF93CDB7DEB764970FB6F89455
:1020A000DEBF0FBECDBF9F838E83798768875B8736
:1020B0004A873D872C870E87F88AEF86DA8AC98A95
:1020C000BC8AAB8A8A859B8529893A89B9010E9495
:1020D000FD179C838B838B819C81009709F49CC0A6
:1020E000EB81FC81238D348D8A859B850197820F3E
:1020F000931F9A8389838B819C8128853985EB89FD
:10210000FC89AA85BB85B9014E859F018D010E947E
:10211000B81689819A812E813F814C855D85B901F0
:102120000E94D808EB81FC81918380838F859889F8
:10213000009731F0EF85F8898B819C8191838083B2
:102140000FB6F8940F9280911B038F5F80931B034F
:102150008091180390911903009769F48B819C81F9
:10216000909319038093180380911B038130A9F485
:102170000E94171712C080912203882371F4E09106
:102180001803F0911903928D8E85891730F08B8199
:102190009C819093190380931803EB81FC81928DAD
:1021A00080912003891728F4EB81FC81828D809334
:1021B0002003809127038F5F80932703EB81FC81AD
:1021C000928D80912103891728F4EB81FC81828D07
:1021D00080932103EB81FC81828D482F50E0CA015E
:1021E000880F991F9C01220F331F220F331F820F6C
:1021F000931F840F951FAC01485D5C4F8B819C81C0
:102200009C012E5F3F4FCA01B9010E94630781E024
:102210008D830F900FBE02C08FEF8D838D81813033
:1022200071F480912203882351F0E0911803F0911A
:102230001903928D8E85981710F40E94970A8D814C
:1022400064960FB6F894DEBF0FBECDBFCF91DF917D
:102250001F910F91FF90EF90DF90CF90BF90AF90C4
:102260000895DF93CF9300D000D000D0CDB7DEB774
:102270009C838B830FB6F8940F92209118033091B2
:1022800019038B819C818217930711F41C821B8296
:102290008B819C81009739F48091180390911903E8
:1022A0009E838D8304C08B819C819E838D838D81D1
:1022B0009E819A83898389819A8102960E942B0844
:1022C000E981FA81808D918D009729F089819A8129
:1022D0000E960E942B0889819A819C012E5F3F4FA8
:1022E00082EF93E0B9010E94630780911A038F5F28
:1022F00080931A03809127038F5F809327030F90A9
:102300000FBE80912203882331F08B819C8100973E
:1023100011F40E94970A26960FB6F894DEBF0FBEFE
:10232000CDBFCF91DF910895DF93CF93CDB7DEB7C7
:102330002C970FB6F894DEBF0FBECDBF98878F8362
:1023400049875A876B877C8719820E94D212EF8156
:10235000F885208131814281538189859A85AB85B9
:10236000BC85820F931FA41FB51F8B839C83AD83F5
:10237000BE83EF81F8852081318142815381809134
:102380001C0390911D03A0911E03B0911F0382179F
:102390009307A407B50718F5EF81F88520813181EF
:1023A000428153818B819C81AD81BE8182179307CD
:1023B000A407B507B0F520911C0330911D0340918F
:1023C0001E0350911F038B819C81AD81BE81281714
:1023D00039074A075B0728F581E0898322C0EF812E
:1023E000F88520813181428153818B819C81AD812F
:1023F000BE8182179307A407B50788F020911C03BC
:1024000030911D0340911E0350911F038B819C81CD
:10241000AD81BE81281739074A075B0710F481E0B8
:102420008983EF81F8858B819C81AD81BE8180831A
:102430009183A283B3838981882379F080911803E3
:102440009091190302960E942B088B819C81AD818B
:10245000BE81BC01CD010E9495170E94DE128A83C5
:102460008A81882311F40E94970A2C960FB6F8945B
:10247000DEBF0FBECDBFCF91DF910895DF93CF9325
:10248000CDB7DEB729970FB6F894DEBF0FBECDBF2C
:102490006E837F838887998719828E819F81A88523
:1024A000B9850097A105B10541F10E94D212209192
:1024B0001C0330911D0340911E0350911F038E8118
:1024C0009F81A885B985820F931FA41FB51F8A839A
:1024D0009B83AC83BD83809118039091190302966E
:1024E0000E942B088A819B81AC81BD81BC01CD01FA
:1024F0000E9495170E94DE1289838981882311F436
:102500000E94970A29960FB6F894DEBF0FBECDBF82
:10251000CF91DF910895AF92BF92CF92DF92EF9269
:10252000FF920F93DF93CF930F92CDB7DEB72AE6DA
:1025300030E08EEA96E1B90145E550E020E030E078
:1025400000E0EE24FF24CC24DD24AA24BB240E9436
:10255000411089838981813071F4F89481E08093FE
:10256000220310921C0310921D0310921E0310925E
:102570001F030E945B0A0F90CF91DF910F91FF9094
:10258000EF90DF90CF90BF90AF900895DF93CF93FF
:10259000CDB7DEB7F894109222030E94900ACF9133
:1025A000DF910895DF93CF93CDB7DEB780912303FA
:1025B0008F5F80932303CF91DF910895DF93CF93B3
:1025C00000D000D0CDB7DEB71A820FB6F8940F92C4
:1025D00080912303815080932303809123038823D8
:1025E00009F06FC080911B03882309F46AC0198227
:1025F00044C0E091EE03F091EF03808591859C83C8
:102600008B838B819C810E960E942B088B819C81F1
:1026100002960E942B08EB81FC81928D8091210310
:10262000891728F4EB81FC81828D80932103EB8153
:10263000FC81828D482F50E0CA01880F991F9C01B0
:10264000220F331F220F331F820F931F840F951FFA
:10265000885D9C4F2B813C812E5F3F4FB9010E94CA
:102660006307EB81FC81928DE0911803F0911903CF
:10267000828D981710F081E089838091E703882389
:1026800009F0B7CF80912403882371F007C00E941E
:10269000BA138091240381508093240380912403F2
:1026A0008823A9F781E089838981813021F0809195
:1026B0002503813031F481E08A83109225030E9442
:1026C000970A0F900FBE8A810F900F900F900F9076
:1026D000CF91DF910895DF93CF9300D000D0CDB795
:1026E000DEB70FB6F8940F9280911C0390911D03F2
:1026F000A0911E03B0911F0389839A83AB83BC838F
:102700000F900FBE89819A81AB81BC81BC01CD0144
:102710000F900F900F900F90CF91DF910895DF935E
:10272000CF9300D000D00F92CDB7DEB71982809141
:102730001C0390911D03A0911E03B0911F038A8377
:102740009B83AC83BD838A819B81AC81BD81BC01AD
:10275000CD010F900F900F900F900F90CF91DF91C0
:102760000895DF93CF93CDB7DEB780911B03CF9150
:10277000DF910895DF93CF93CDB7DEB728970FB6DB
:10278000F894DEBF0FBECDBF80912303882309F0EC
:10279000FDC080911C0390911D03A0911E03B09178
:1027A0001F030196A11DB11D80931C0390931D036F
:1027B000A0931E03B0931F0380911C0390911D03EF
:1027C000A0911E03B0911F030097A105B10509F068
:1027D00046C08091E3039091E4039E838D838091B2
:1027E000E5039091E6039093E4038093E3038D81E6
:1027F0009E819093E6038093E503809126038F5F8B
:1028000080932603E091E303F091E4038081882321
:1028100069F48FEF9FEFAFEFBFEF80936F0090935E
:102820007000A0937100B093720019C0E091E303AF
:10283000F091E4030780F085E02D808591859887ED
:102840008F83EF81F88582819381A481B581809304
:102850006F0090937000A0937100B093720020916C
:102860001C0330911D0340911E0350911F03809162
:102870006F0090917000A0917100B09172002817C4
:1028800039074A075B0708F486C0E091E303F0913B
:10289000E4038081882369F48FEF9FEFAFEFBFEFF0
:1028A00080936F0090937000A0937100B0937200BA
:1028B00072C0E091E303F091E4030780F085E02D1E
:1028C0008085918598878F83EF81F88582819381B8
:1028D000A481B58189839A83AB83BC8320911C0337
:1028E00030911D0340911E0350911F0389819A81ED
:1028F000AB81BC81281739074A075B0768F48981D7
:102900009A81AB81BC8180936F0090937000A093FB
:102910007100B09372003FC08F81988502960E942B
:102920002B08EF81F885808D918D009729F08F819C
:1029300098850E960E942B08EF81F885928D8091E4
:102940002103891728F4EF81F885828D8093210374
:10295000EF81F885828D482F50E0CA01880F991FBA
:102960009C01220F331F220F331F820F931F840FEE
:10297000951FAC01485D5C4F8F8198859C012E5F4F
:102980003F4FCA01B9010E9463077FCF80912403A2
:102990008F5F8093240328960FB6F894DEBF0FBE96
:1029A000CDBFCF91DF910895DF93CF9300D0CDB706
:1029B000DEB780912303882349F081E080932503CB
:1029C0005AC080912103815080932103809121037B
:1029D000482F50E0CA01880F991F9C01220F331F16
:1029E000220F331F820F931F840F951FFC01E85D98
:1029F000FC4F8081882329F380912103482F50E0E8
:102A0000CA01880F991F9C01220F331F220F331F09
:102A1000820F931F840F951F885D9C4F9A83898333
:102A2000E981FA810180F281E02D84819581E9813B
:102A3000FA8192838183E981FA81218132818981BE
:102A40009A8103962817390759F4E981FA810180A0
:102A5000F281E02D84819581E981FA8192838183DD
:102A6000E981FA810180F281E02D80859185909342
:102A70001903809318030F900F90CF91DF91089561
:102A8000DF93CF93CDB7DEB72A970FB6F894DEBFAA
:102A90000FBECDBF9E838D834F83588769877A870A
:102AA0004D815E8180911803909119039C01225FF2
:102AB0003F4FCA01B9010E94AF078091180390915E
:102AC000190302960E942B0820911C0330911D03CC
:102AD00040911E0350911F038F819885A985BA8567
:102AE000820F931FA41FB51F89839A83AB83BC8376
:102AF00089819A81AB81BC81BC01CD010E9495176F
:102B00002A960FB6F894DEBF0FBECDBFCF91DF91EE
:102B10000895DF93CF9300D000D00F92CDB7DEB7EA
:102B20009D838C83EC81FD810780F085E02D80857D
:102B300091859B838A838A819B810E960E942B08B4
:102B400080912303882379F58A819B8102960E94D4
:102B50002B08EA81FB81928D80912103891728F44B
:102B6000EA81FB81828D80932103EA81FB81828D42
:102B7000482F50E0CA01880F991F9C01220F331F74
:102B8000220F331F820F931F840F951FAC01485DE6
:102B90005C4F8A819B819C012E5F3F4FCA01B90126
:102BA0000E9463070AC08A819B819C01225F3F4F7C
:102BB00087EE93E0B9010E946307EA81FB81928D61
:102BC000E0911803F0911903828D981718F081E0B5
:102BD000898301C0198289810F900F900F900F9007
:102BE0000F90CF91DF910895DF93CF9300D0CDB7B1
:102BF000DEB79A83898380912603E981FA818083F5
:102C000080911C0390911D03A0911E03B0911F039E
:102C1000E981FA8181839283A383B4830F900F901B
:102C2000CF91DF910895AF92BF92CF92DF92EF9252
:102C3000FF920F931F93DF93CF9300D000D00F929A
:102C4000CDB7DEB79B838A837D836C830FB6F89400
:102C50000F92EA81FB819081809126039817B1F051
:102C6000EA81FB81218132814381548180911C035F
:102C700090911D03A0911E03B0911F03821793072B
:102C8000A407B50718F081E089834BC020911C038D
:102C900030911D0340911E0350911F03EA81FB8177
:102CA00081819281A381B481281B390B4A0B5B0B74
:102CB000EC81FD8180819181A281B3812817390740
:102CC0004A075B0760F5EC81FD81E080F1800281BD
:102CD0001381EA81FB81218132814381548180917A
:102CE0001C0390911D03A0911E03B0911F03590175
:102CF0006A01A81AB90ACA0ADB0AD601C5018E0DF3
:102D00009F1DA01FB11FEC81FD8180839183A28351
:102D1000B3838A819B810E94F415198202C081E0ED
:102D200089830F900FBE89810F900F900F900F90A5
:102D30000F90CF91DF911F910F91FF90EF90DF9057
:102D4000CF90BF90AF900895DF93CF93CDB7DEB70C
:102D500081E080932503CF91DF910895DF93CF9396
:102D600000D0CDB7DEB79A8389830E945717FDCF75
:102D70000F931F93DF93CF93CDB7DEB729970FB68D
:102D8000F894DEBF0FBECDBF9A8389837C836B83AB
:102D90004D833F832E831987088789819A814D96B9
:102DA0002B813C81B90140E150E00E947318E98118
:102DB000FA8114A68D818F3010F08EE08D83E98129
:102DC000FA818D81828F89819A8102960E945307B0
:102DD00089819A810E960E945307E981FA8189813F
:102DE0009A81938782878D81282F30E040E050E0E0
:102DF0008FE090E0A0E0B0E0821B930BA40BB50B3A
:102E0000E981FA8186879787A08BB18BE981FA8166
:102E100089819A81978B868B29960FB6F894DEBFAD
:102E20000FBECDBFCF91DF911F910F910895DF931A
:102E3000CF930F92CDB7DEB7198216C08981482F84
:102E400050E0CA01880F991F9C01220F331F220FE7
:102E5000331F820F931F840F951F885D9C4F0E9424
:102E6000250789818F5F898389818F3038F38DECC5
:102E700093E00E94250788ED93E00E94250787EEE6
:102E800093E00E94250782EF93E00E9425078DECD6
:102E900093E09093E4038093E30388ED93E09093B1
:102EA000E6038093E5030F90CF91DF910895DF93C0
:102EB000CF9300D00F92CDB7DEB780911A0388234D
:102EC00071F10E94D2128091F2031B82882311F4C7
:102ED00081E08B830E94DE128B81882301F50FB67F
:102EE000F8940F92E091F903F091FA0380859185AF
:102EF0009A83898389819A8102960E942B08809106
:102F00001B03815080931B0380911A03815080938F
:102F10001A030F900FBE89819A810E944D180F905D
:102F20000F900F90CF91DF910895DF93CF9300D052
:102F300000D0CDB7DEB769837A838B839C83E09121
:102F40001803F091190389819A81AB81BC81828336
:102F50009383A483B58320911C0330911D0340917A
:102F60001E0350911F0389819A81AB81BC81821716
:102F70009307A407B50770F48091E5039091E603E9
:102F800020911803309119032E5F3F4FB9010E9421
:102F9000AF072CC04091E3035091E40380911803E4
:102FA000909119039C012E5F3F4FCA01B9010E9405
:102FB000AF0720916F0030917000409171005091E7
:102FC000720089819A81AB81BC8182179307A40723
:102FD000B50760F489819A81AB81BC8180936F00D1
:102FE00090937000A0937100B09372000F900F90B7
:102FF0000F900F90CF91DF910895DF93CF93CDB7CE
:10300000DEB728970FB6F894DEBF0FBECDBF9C8306
:103010008B837E836D838DE290E00E94B9069A8354
:10302000898389819A81009769F18D819E810097BA
:1030300039F48B819C810E94B90698878F8304C0E4
:103040008D819E8198878F83E981FA818F81988510
:10305000948F838FE981FA81838D948D009739F461
:1030600089819A810E94FF061A8219820BC0E98128
:10307000FA81838D948D2B813C8165EA70E0A901F2
:103080000E946C1889819A8128960FB6F894DEBF49
:103090000FBECDBFCF91DF910895DF93CF9300D0C6
:1030A000CDB7DEB79A838983E981FA81838D948DC8
:1030B0000E94FF0689819A810E94FF060F900F905F
:1030C000CF91DF910895FB01DC0102C001900D92C8
:1030D00041505040D8F70895DC0101C06D93415034
:1030E0005040E0F70895FB01DC014150504048F0AA
:1030F00001900D920020C9F701C01D92415050402F
:08310000E0F70895F894FFCFF9
:103108006C65645F626C696E6B0049444C4500FFF6
:04311800FFFFFF00B6
:00000001FF
