:100000000C942A000C943F000C943F000C943F0089
:100010000C943F000C943F000C943F000C943F0064
:100020000C943F000C943F000C943F000C943F0054
:100030000C943F000C943F000C943F000C943F0044
:100040000C943F000C943F000C943F000C943F0034
:100050000C943F0011241FBECFE5D8E0DEBFCDBF1A
:1000600010E0A0E6B0E0E0E5FDE102C005900D92F1
:10007000A836B107D9F70E946E090C94A60E0C940D
:100080000000EF92FF920F931F937B018C0120E001
:1000900030E040E05FE40E94ED0388238CF0C8016B
:1000A000B70120E030E040E05FE40E94B9010E9427
:1000B0004D049B01AC01205030404040504806C0E8
:1000C000C801B7010E944D049B01AC01B901CA01EE
:1000D0001F910F91FF90EF900895A0E0B0E0E3E74B
:1000E000F0E00C946F0EDC012B01FA019C91923030
:1000F00008F439C1EB018881823008F433C19430AF
:1001000069F4843009F02FC111969C91119789816F
:10011000981709F428C1A0E6B0E025C1843009F49D
:1001200021C18230A9F4923009F01DC19A01AD01BC
:1001300088E0EA010990AE01E90109929E0181502F
:10014000C1F7E201898111969C918923818308C1BD
:10015000923009F407C112962D903C901397EB0151
:100160008A819B811496AD90BD90CD90DC901797BD
:10017000EC80FD800E811F819101281B390BB90194
:1001800037FF04C066277727621B730B6032710547
:100190000CF061C0121613066CF537014801062EEB
:1001A00004C096948794779467940A94D2F721E0D8
:1001B00030E040E050E004C0220F331F441F551FC1
:1001C0006A95D2F721503040404050402E213F21C7
:1001D00040235123211531054105510521F021E02E
:1001E00030E040E050E079018A01E628F72808294C
:1001F00019293CC0232BD1F1260E371E35014601AB
:10020000062E04C096948794779467940A94D2F744
:1002100021E030E040E050E004C0220F331F441FD3
:10022000551F6A95D2F721503040404050402A2156
:100230003B214C215D21211531054105510521F05E
:1002400021E030E040E050E059016A01A628B728DB
:10025000C828D9280BC0821593052CF01C01AA24AC
:10026000BB24650103C0EE24FF24870111969C91F5
:10027000D20111968C91981709F445C0992339F051
:10028000A80197012A193B094C095D0906C0A6017E
:1002900095012E193F09400B510B57FD08C01182E3
:1002A0003382228224833583468357831DC081E0B5
:1002B00081833382228288279927DC01821B930B5A
:1002C000A40BB50B84839583A683B7830DC0220F3F
:1002D000331F441F551F24833583468357838281F0
:1002E000938101979383828324813581468157814D
:1002F000DA01C9010197A109B1098F5F9F4FAF4F83
:10030000BF4328F30BC0918333822282EA0CFB1C8B
:100310000C1D1D1DE482F5820683178383E0808314
:10032000248135814681578157FF1AC0C901AA2708
:1003300097FDA095BA2F81709070A070B0705695FF
:10034000479537952795822B932BA42BB52B848328
:100350009583A683B7838281938101969383828359
:10036000DF0101C0D201CD01CDB7DEB7E2E10C94CF
:100370008B0EA0E2B0E0EFEBF1E00C947B0E698312
:100380007A838B839C832D833E834F835887E9E058
:10039000EE2EF12CEC0EFD1ECE010196B7010E944F
:1003A00076058E010F5E1F4FCE010596B8010E94A3
:1003B00076058A8991E089278A8BC701B801AE0149
:1003C000475E5F4F0E946D000E94A104A096E6E088
:1003D0000C94970EA0E2B0E0E0EFF1E00C947B0EFD
:1003E00069837A838B839C832D833E834F835887D5
:1003F000F9E0EF2EF12CEC0EFD1ECE010196B701B7
:100400000E9476058E010F5E1F4FCE010596B80142
:100410000E947605C701B801AE01475E5F4F0E949A
:100420006D000E94A104A096E6E00C94970EA0E255
:10043000B0E0EDE1F2E00C946F0E69837A838B8378
:100440009C832D833E834F835887CE010196BE0146
:10045000675F7F4F0E947605CE010596BE016F5EF5
:100460007F4F0E9476059985923088F08989823085
:10047000C8F0943019F4823051F404C0843029F467
:10048000923081F480E690E0C6C0923049F420E0DA
:100490009A858A89981321E02A87CE010996BBC0E4
:1004A000823049F420E09A858A89981321E02A8BCA
:1004B000CE014196B0C02D843E844F8458886D880B
:1004C0007E888F88988CEE24FF248701AA24BB2481
:1004D000650140E050E060E070E0E0E0F0E0C10184
:1004E00081709070892BE9F0E60CF71C081D191D2E
:1004F0009A01AB012A0D3B1D4C1D5D1D80E090E073
:10050000A0E0B0E0E614F7040805190520F481E046
:1005100090E0A0E0B0E0BA01A901480F591F6A1F9E
:100520007B1FAA0CBB1CCC1CDD1C97FE08C081E005
:1005300090E0A0E0B0E0A82AB92ACA2ADB2A3196C6
:10054000E032F10549F0660C771C881C991C569422
:10055000479437942794C3CFFA85EA892B893C893D
:100560008B859C85280F391F2E5F3F4F17C0CA010E
:1005700081709070892B61F016950795F794E79438
:1005800080E090E0A0E0B0E8E82AF92A0A2B1B2BD3
:1005900076956795579547952F5F3F4F77FDE7CF46
:1005A0000CC0440F551F661F771F17FD4160EE0CEE
:1005B000FF1C001F111F21503040403090E05907B0
:1005C00090E0690790E4790760F32B8F3C8FDB01A3
:1005D000CA018F779070A070B07080349105A1052A
:1005E000B10561F447FD0AC0E114F10401051105EC
:1005F00029F0405C5F4F6F4F7F4F40781A8EFE1797
:1006000011F081E08A8F4D8F5E8F6F8F78A383E02A
:10061000898FCE0149960E94A104A096E2E10C9434
:100620008B0EA8E1B0E0E7E1F3E00C94770E69836C
:100630007A838B839C832D833E834F835887B9E0D5
:10064000EB2EF12CEC0EFD1ECE010196B7010E949F
:1006500076058E010F5E1F4FCE010596B8010E94F0
:1006600076052985223008F47EC03989323010F4AD
:10067000B8017CC08A859A8989278A87243011F03D
:10068000223031F4231709F06EC060E670E06EC0CE
:10069000343039F41D861E861F86188A1C861B86F8
:1006A00004C0323021F484E08987B7015FC02B8514
:1006B0003C858B899C89281B390B3C872B87ED84D3
:1006C000FE840F851889AD88BE88CF88D88CEA143F
:1006D000FB040C051D0540F4EE0CFF1C001F111F50
:1006E000215030403C872B8720E030E040E050E054
:1006F00080E090E0A0E0B0E460E070E0EA14FB0489
:100700000C051D0540F0282B392B4A2B5B2BEA18D2
:10071000FB080C091D09B695A79597958795EE0CD2
:10072000FF1C001F111F6F5F7F4F6F31710531F785
:10073000DA01C9018F779070A070B0708034910594
:10074000A105B10561F427FD0AC0E114F10401051A
:10075000110529F0205C3F4F4F4F5F4F20782D87C8
:100760003E874F87588BBE01675F7F4FCB010E944A
:10077000A1046896EAE00C94930EA8E1B0E0E3ECE3
:10078000F3E00C947B0E69837A838B839C832D83A7
:100790003E834F83588789E0E82EF12CEC0EFD1E36
:1007A000CE010196B7010E9476058E010F5E1F4FA4
:1007B000CE010596B8010E9476058985823040F009
:1007C0008989823028F0C701B8010E94EE0501C076
:1007D0008FEF6896E6E00C94970EA8E1B0E0E3EFA7
:1007E000F3E00C947B0E69837A838B839C832D8347
:1007F0003E834F83588789E0E82EF12CEC0EFD1ED6
:10080000CE010196B7010E9476058E010F5E1F4F43
:10081000CE010596B8010E9476058985823040F0A8
:100820008989823028F0C701B8010E94EE0501C015
:100830008FEF6896E6E00C94970EA8E1B0E0E3E253
:10084000F4E00C947B0E69837A838B839C832D83E5
:100850003E834F83588789E0E82EF12CEC0EFD1E75
:10086000CE010196B7010E9476058E010F5E1F4FE3
:10087000CE010596B8010E9476058985823040F048
:100880008989823028F0C701B8010E94EE0501C0B5
:1008900081E06896E6E00C94970EACE0B0E0E3E50A
:1008A000F4E00C947F0E69837A838B839C83CE0162
:1008B0000196BE016B5F7F4F0E9476058D8182306D
:1008C00061F1823050F1843021F48E81882351F11E
:1008D0002EC02F81388537FD20C06E812F31310524
:1008E0001CF06623F9F023C08EE190E0821B930B8D
:1008F00029853A854B855C8504C056954795379583
:1009000027958A95D2F76623B1F05095409530959A
:1009100021953F4F4F4F5F4F0EC020E030E040E049
:1009200050E009C02FEF3FEF4FEF5FE704C020E03A
:1009300030E040E050E8B901CA012C96E2E00C94A6
:100940009B0EDF92EF92FF920F931F93FC01E480C6
:10095000F58006811781D1808081823048F480E063
:1009600090E0A0E1B0E0E82AF92A0A2B1B2BA5C0F1
:10097000843009F49FC0823021F4EE24FF248701E3
:1009800005C0E114F1040105110519F4E0E0F0E0FF
:1009900096C0628173819FEF623879070CF05BC06B
:1009A00022E83FEF261B370B2A3131052CF020E0DF
:1009B00030E040E050E02AC0B801A701022E04C098
:1009C00076956795579547950A94D2F781E090E020
:1009D000A0E0B0E004C0880F991FAA1FBB1F2A9592
:1009E000D2F70197A109B1098E219F21A023B1233C
:1009F0000097A105B10521F081E090E0A0E0B0E012
:100A00009A01AB01282B392B4A2B5B2BDA01C90148
:100A10008F779070A070B07080349105A105B105FA
:100A200039F427FF09C0205C3F4F4F4F5F4F04C090
:100A3000215C3F4F4F4F5F4FE0E0F0E02030A0E0FF
:100A40003A07A0E04A07A0E45A0710F0E1E0F0E01E
:100A500079018A0127C06038710564F5FB01E1580E
:100A6000FF4FD801C7018F779070A070B0708034AD
:100A70009105A105B10539F4E7FE0DC080E490E0D1
:100A8000A0E0B0E004C08FE390E0A0E0B0E0E80EAA
:100A9000F91E0A1F1B1F17FF05C016950795F7942F
:100AA000E794319687E016950795F794E7948A9531
:100AB000D1F705C0EE24FF248701EFEFF0E06E2FA1
:100AC000679566276795902F9F77D794DD24D794F5
:100AD0008E2F8695492F462B582F5D29B701CA01C5
:100AE0001F910F91FF90EF90DF900895FC01DB01C3
:100AF000408151812281622F6F7770E0221F22276F
:100B0000221F9381892F880F822B282F30E0991F75
:100B10009927991F11969C93119721153105A9F5D5
:100B2000411551056105710511F482E037C082E875
:100B30009FEF13969C938E9312979A01AB0167E0F7
:100B4000220F331F441F551F6A95D1F783E08C9302
:100B50000DC0220F331F441F551F12968D919C917B
:100B60001397019713969C938E931297203080E0F1
:100B7000380780E0480780E4580758F314962D930F
:100B80003D934D935C93179708952F3F310579F46A
:100B9000411551056105710519F484E08C930895A0
:100BA00064FF03C081E08C9312C01C9210C02F57C9
:100BB000304013963C932E93129783E08C9387E0FA
:100BC000440F551F661F771F8A95D1F770641496DE
:100BD0004D935D936D937C93179708951F93DC015C
:100BE000FB019C91923008F447C08081823008F468
:100BF00043C0943051F411961C91843099F5818151
:100C0000682F70E0611B71093FC0843021F0923081
:100C100031F48230B9F18181882389F12DC0119698
:100C20001C9111978230F1F081811817D9F4129636
:100C30002D913C911397828193818217930794F0B1
:100C400028173907BCF014968D919D910D90BC9199
:100C5000A02D2481358146815781281739074A07FD
:100C60005B0718F4112341F00AC082179307A40709
:100C7000B50740F4112319F061E070E005C06FEF93
:100C80007FEF02C060E070E0CB011F910895DF9319
:100C9000CF9300D000D00F92CDB7DEB789836A839F
:100CA0004B838981282F30E03D832C838C819D816B
:100CB0008130910509F447C02C813D8122303105F6
:100CC0002CF48C819D81009771F0CBC02C813D81EB
:100CD0002230310509F467C08C819D8183309105F4
:100CE00009F491C0BEC08B818130A1F4ABE3B0E0C8
:100CF000EBE3F0E08081482F8A81282F30E081E00B
:100D000090E0022E02C0880F991F0A94E2F7842B0C
:100D10008C93A7C08B81882309F0A3C0ABE3B0E01C
:100D2000EBE3F0E08081482F8A81282F30E081E0DA
:100D300090E0022E02C0880F991F0A94E2F7809576
:100D400084238C938EC08B818130A1F4A8E3B0E022
:100D5000E8E3F0E08081482F8A81282F30E081E0AD
:100D600090E0022E02C0880F991F0A94E2F7842BAC
:100D70008C9377C08B81882309F073C0A8E3B0E01F
:100D8000E8E3F0E08081482F8A81282F30E081E07D
:100D900090E0022E02C0880F991F0A94E2F7809516
:100DA00084238C935EC08B818130A1F4A5E3B0E0F5
:100DB000E5E3F0E08081482F8A81282F30E081E050
:100DC00090E0022E02C0880F991F0A94E2F7842B4C
:100DD0008C9347C08B81882309F043C0A5E3B0E022
:100DE000E5E3F0E08081482F8A81282F30E081E020
:100DF00090E0022E02C0880F991F0A94E2F78095B6
:100E000084238C932EC08B818130A1F4A2E3B0E0C7
:100E1000E2E3F0E08081482F8A81282F30E081E0F2
:100E200090E0022E02C0880F991F0A94E2F7842BEB
:100E30008C9317C08B818823A1F4A2E3B0E0E2E396
:100E4000F0E08081482F8A81282F30E081E090E017
:100E5000022E02C0880F991F0A94E2F7809584231E
:100E60008C930F900F900F900F900F90CF91DF9178
:100E70000895DF93CF9300D000D00F92CDB7DEB7A7
:100E800089836A838981282F30E03D832C834C81BC
:100E90005D814130510549F18C819D818230910500
:100EA00034F42C813D812115310561F057C04C810E
:100EB0005D814230510561F18C819D8183309105C6
:100EC000D1F14CC0E9E3F0E08081282F30E08A8145
:100ED000882F90E0A90102C0559547958A95E2F7C1
:100EE000CA01582F51705B833AC0E6E3F0E080817D
:100EF000282F30E08A81882F90E0A90102C0559503
:100F000047958A95E2F7CA01582F51705B8327C035
:100F1000E3E3F0E08081282F30E08A81882F90E0A1
:100F2000A90102C0559547958A95E2F7CA01582F45
:100F300051705B8314C0E0E3F0E08081282F30E043
:100F40008A81882F90E0A90102C0559547958A951E
:100F5000E2F7CA01582F51705B8301C01B828B815D
:100F60000F900F900F900F900F90CF91DF910895F9
:100F7000DF93CF9300D000D00F92CDB7DEB7898337
:100F80006A834B838981282F30E03D832C838C81B9
:100F90009D818130910509F446C02C813D8122302C
:100FA00031052CF48C819D81009771F0CAC02C8191
:100FB0003D812230310509F466C08C819D818330EA
:100FC000910509F490C0BDC08B818823A1F4AAE3E8
:100FD000B0E0EAE3F0E08081482F8A81282F30E0FA
:100FE00081E090E0022E02C0880F991F0A94E2F778
:100FF000809584238C938B81813009F0A2C0AAE371
:10100000B0E0EAE3F0E08081482F8A81282F30E0C9
:1010100081E090E0022E02C0880F991F0A94E2F747
:10102000842B8C938EC08B818823A9F4A7E3B0E036
:10103000E7E3F0E08081482F8A81282F30E081E0CB
:1010400090E0022E02C0880F991F0A94E2F7809563
:1010500084238C9376C08B81813009F072C0A7E322
:10106000B0E0E7E3F0E08081482F8A81282F30E06C
:1010700081E090E0022E02C0880F991F0A94E2F7E7
:10108000842B8C935EC08B818823A9F4A4E3B0E009
:10109000E4E3F0E08081482F8A81282F30E081E06E
:1010A00090E0022E02C0880F991F0A94E2F7809503
:1010B00084238C9346C08B81813009F042C0A4E325
:1010C000B0E0E4E3F0E08081482F8A81282F30E00F
:1010D00081E090E0022E02C0880F991F0A94E2F787
:1010E000842B8C932EC08B818823A9F4A1E3B0E0DC
:1010F000E1E3F0E08081482F8A81282F30E081E011
:1011000090E0022E02C0880F991F0A94E2F78095A2
:1011100084238C9316C08B81813099F4A1E3B0E0D5
:10112000E1E3F0E08081482F8A81282F30E081E0E0
:1011300090E0022E02C0880F991F0A94E2F7842BD8
:101140008C930F900F900F900F900F90CF91DF9195
:101150000895DF93CF9300D000D0CDB7DEB7898359
:101160006A838981282F30E03C832B838B819C818B
:1011700081309105D1F02B813C81223031052CF456
:101180008B819C81009761F01EC02B813C812230B5
:10119000310581F08B819C818330910581F013C0F2
:1011A000EAE3F0E08A8180830EC0E7E3F0E08A8121
:1011B000808309C0E4E3F0E08A81808304C0E1E336
:1011C000F0E08A8180830F900F900F900F90CF9165
:1011D000DF910895DF93CF9300D000D0CDB7DEB775
:1011E00089836A838981282F30E03C832B838B811C
:1011F0009C8181309105D1F02B813C8122303105D9
:101200002CF48B819C81009761F01EC02B813C8166
:101210002230310581F08B819C818330910581F0F2
:1012200013C0EBE3F0E08A8180830EC0E8E3F0E0D6
:101230008A81808309C0E5E3F0E08A81808304C06D
:10124000E2E3F0E08A8180830F900F900F900F907F
:10125000CF91DF910895DF93CF9300D000D0CDB729
:10126000DEB789838981282F30E03C832B838B81F3
:101270009C8181309105D1F02B813C812230310558
:101280002CF48B819C81009761F01FC02B813C81E5
:101290002230310581F08B819C818330910581F072
:1012A00014C0E9E3F0E090819A8310C0E6E3F0E037
:1012B00020812A830BC0E3E3F0E030813A8306C04B
:1012C000E0E3F0E080818A8301C01A828A810F9076
:1012D0000F900F900F90CF91DF9108950F931F9370
:1012E000DF93CF93CDB7DEB7C957D0400FB6F89490
:1012F000DEBF0FBECDBF81E062E041E00E94B807D3
:1013000081E062E040E00E944706FE01E758FF4F9F
:10131000108265C281E062E041E00E944706FE0162
:10132000EB58FF4F80E090E8ABEBB4E4808391830F
:10133000A283B3838E010F581F4FFE01EB58FF4F5E
:1013400060817181828193812BEA3AEA4AE250E41A
:101350000E941702DC01CB01F80180839183A283F4
:10136000B383FE01EF58FF4F6081718182819381C9
:1013700020E030E040E85FE30E941D04882334F45D
:10138000FE01E059FF4F81E08083E0C0FE01EF588D
:10139000FF4F608171818281938120E030E04FE7CF
:1013A00053E40E94BD0318160CF0C0C0FE01EB58B8
:1013B000FF4F608171818281938120E030E04AE7B4
:1013C00054E40E941103DC01CB01FE01E459FF4FFC
:1013D00080839183A283B3838E0108591F4FFE013E
:1013E000E459FF4F608171818281938120E030E078
:1013F0004AEF54E40E941702DC01CB01F80180831C
:101400009183A283B383FE01E859FF4F608171810C
:101410008281938120E030E040E85FE30E941D0478
:10142000882344F4FE01EA59FF4F81E090E0918364
:10143000808364C0FE01E859FF4F60817181828121
:10144000938120E03FEF4FE757E40E94BD03181659
:101450000CF043C0FE01E459FF4F6081718182812D
:10146000938120E030E040E251E40E941702DC0169
:10147000CB018E010A591F4FBC01CD010E944100D2
:10148000DC01CB01F801918380831FC0FE01EC5980
:10149000FF4F88EC90E091838083FE01EC59FF4F71
:1014A000808191810197F1F7FE01EC59FF4F918303
:1014B0008083DE01AA59BF4FFE01EA59FF4F8081A8
:1014C0009181019711969C938E93FE01EA59FF4FEB
:1014D000808191810097D1F64BC08E010A591F4F30
:1014E000FE01E859FF4F60817181828193810E94E2
:1014F0004100DC01CB01F80191838083DE01AE590C
:10150000BF4FFE01EA59FF4F8081918111969C9354
:101510008E93FE01EE59FF4F808191810197F1F783
:10152000FE01EE59FF4F9183808322C08E01005946
:101530001F4FFE01EF58FF4F6081718182819381BF
:101540000E944100DC01CB01F8018083DE01AF592C
:10155000BF4FFE01E059FF4F80818C93FE01EF5990
:10156000FF4F80818A95F1F7FE01EF59FF4F80838D
:1015700081E062E040E00E944706FE01E35AFF4F2F
:1015800080E098E8A0E9B6E480839183A283B383E6
:101590008E01075A1F4FFE01E35AFF4F6081718190
:1015A000828193812BEA3AEA4AE250E40E941702D0
:1015B000DC01CB01F80180839183A283B383FE0118
:1015C000E75AFF4F608171818281938120E030E092
:1015D00040E85FE30E941D04882334F4FE01E85ACA
:1015E000FF4F81E08083E0C0FE01E75AFF4F60813A
:1015F00071818281938120E030E04FE753E40E94C3
:10160000BD0318160CF0C0C0FE01E35AFF4F608105
:1016100071818281938120E030E04AE754E40E94A6
:101620001103DC01CB01FE01EC5AFF4F8083918353
:10163000A283B3838E01005B1F4FFE01EC5AFF4F64
:10164000608171818281938120E030E04AEF54E42F
:101650000E941702DC01CB01F80180839183A283F1
:10166000B383FE01E05BFF4F6081718182819381D2
:1016700020E030E040E85FE30E941D04882344F44A
:10168000FE01E25BFF4F81E090E09183808364C0C4
:10169000FE01E05BFF4F608171818281938120E0D8
:1016A0003FEF4FE757E40E94BD0318160CF043C00C
:1016B000FE01EC5AFF4F608171818281938120E0AD
:1016C00030E040E251E40E941702DC01CB018E01C0
:1016D000025B1F4FBC01CD010E944100DC01CB0128
:1016E000F801918380831FC0FE01E45BFF4F88EC0B
:1016F00090E091838083FE01E45BFF4F80819181C4
:101700000197F1F7FE01E45BFF4F91838083DE01D7
:10171000A25BBF4FFE01E25BFF4F80819181019789
:1017200011969C938E93FE01E25BFF4F8081918125
:101730000097D1F64BC08E01025B1F4FFE01E05BAC
:10174000FF4F60817181828193810E944100DC01A1
:10175000CB01F80191838083DE01A65BBF4FFE01C0
:10176000E25BFF4F8081918111969C938E93FE01E5
:10177000E65BFF4F808191810197F1F7FE01E65B07
:10178000FF4F9183808322C08E01085A1F4FFE01B4
:10179000E75AFF4F60817181828193810E944100ED
:1017A000DC01CB01F8018083DE01A75BBF4FFE01A6
:1017B000E85AFF4F80818C93FE01E75BFF4F8081E9
:1017C0008A95F1F7FE01E75BFF4F8083DE01A758A2
:1017D000BF4FFE01E758FF4F80818F5F8C93FE0162
:1017E000E758FF4F8081893008F494CDFE01EB5B10
:1017F000FF4F80E090E0AAE7B4E480839183A28366
:10180000B3838E010F5B1F4FFE01EB5BFF4F6081C7
:101810007181828193812BEA3AEA4AE250E40E9484
:101820001702DC01CB01F80180839183A283B3838B
:10183000FE01EF5BFF4F608171818281938120E027
:1018400030E040E85FE30E941D04882334F481E027
:10185000FE01E05CFF4F80839DC0FE01EF5BFF4F08
:10186000608171818281938120E030E04FE753E411
:101870000E94BD0318160CF07EC0FE01EB5BFF4F0B
:10188000608171818281938120E030E04AE754E4F5
:101890000E941103DC01CB018CAF9DAFAEAFBFAF97
:1018A0006CAD7DAD8EAD9FAD20E030E04AEF54E4ED
:1018B0000E941702DC01CB0188AF99AFAAAFBBAF82
:1018C00068AD79AD8AAD9BAD20E030E040E85FE3E4
:1018D0000E941D0488232CF481E090E09FAB8EAB26
:1018E0003FC068AD79AD8AAD9BAD20E03FEF4FE7DB
:1018F00057E40E94BD0318164CF56CAD7DAD8EAD5E
:101900009FAD20E030E040E251E40E941702DC018C
:10191000CB01BC01CD010E944100DC01CB019FAB9A
:101920008EAB0FC088EC90E09DAB8CAB8CA99DA9D1
:101930000197F1F79DAB8CAB8EA99FA901979FAB47
:101940008EAB8EA99FA9009769F72DC068AD79ADC0
:101950008AAD9BAD0E944100DC01CB019FAB8EABF9
:101960008EA99FA99BAB8AAB8AA99BA90197F1F786
:101970009BAB8AAB18C0FE01EF5BFF4F60817181AA
:10198000828193810E944100DC01CB01FE01E05C79
:10199000FF4F8083FE01E05CFF4F808189AB89A906
:1019A0008A95F1F789ABFE01E758FF4F10828FC18E
:1019B00081E062E041E00E94470680E090E0AAE713
:1019C000B4E48DA79EA7AFA7B8AB6DA57EA58FA5E4
:1019D00098A92BEA3AEA4AE250E40E941702DC0195
:1019E000CB0189A79AA7ABA7BCA769A57AA58BA5A8
:1019F0009CA520E030E040E85FE30E941D048823BE
:101A00001CF481E088A791C069A57AA58BA59CA547
:101A100020E030E04FE753E40E94BD0318160CF0BD
:101A20007BC06DA57EA58FA598A920E030E04AE790
:101A300054E40E941103DC01CB018CA39DA3AEA34F
:101A4000BFA36CA17DA18EA19FA120E030E04AEF51
:101A500054E40E941702DC01CB0188A399A3AAA336
:101A6000BBA368A179A18AA19BA120E030E040E856
:101A70005FE30E941D0488232CF481E090E09F8F97
:101A80008E8F3FC068A179A18AA19BA120E03FEF82
:101A90004FE757E40E94BD0318164CF56CA17DA1D9
:101AA0008EA19FA120E030E040E251E40E941702A5
:101AB000DC01CB01BC01CD010E944100DC01CB0166
:101AC0009F8F8E8F0FC088EC90E09D8F8C8F8C8DB8
:101AD0009D8D0197F1F79D8F8C8F8E8D9F8D019736
:101AE0009F8F8E8F8E8D9F8D009769F724C068A180
:101AF00079A18AA19BA10E944100DC01CB019F8FAB
:101B00008E8F8E8D9F8D9B8F8A8F8A8D9B8D019757
:101B1000F1F79B8F8A8F0FC069A57AA58BA59CA52D
:101B20000E944100DC01CB0188A788A5898F898D9F
:101B30008A95F1F7898F81E062E040E00E944706D4
:101B400080E090E7A4E9B6E48D8B9E8BAF8BB88FD5
:101B50006D897E898F89988D2BEA3AEA4AE250E4B2
:101B60000E941702DC01CB01898B9A8BAB8BBC8B5B
:101B700069897A898B899C8920E030E040E85FE3BD
:101B80000E941D0488231CF481E0888B91C0698920
:101B90007A898B899C8920E030E04FE753E40E94EA
:101BA000BD0318160CF07BC06D897E898F89988DD6
:101BB00020E030E04AE754E40E941103DC01CB014D
:101BC0008C879D87AE87BF876C857D858E859F8539
:101BD00020E030E04AEF54E40E941702DC01CB0120
:101BE00088879987AA87BB87688579858A859B8539
:101BF00020E030E040E85FE30E941D0488232CF4DD
:101C000081E090E09F838E833FC0688579858A85D7
:101C10009B8520E03FEF4FE757E40E94BD03181675
:101C20004CF56C857D858E859F8520E030E040E217
:101C300051E40E941702DC01CB01BC01CD010E94DE
:101C40004100DC01CB019F838E830FC088EC90E0C4
:101C50009D838C838C819D810197F1F79D838C837B
:101C60008E819F8101979F838E838E819F810097B4
:101C700069F724C0688579858A859B850E94410023
:101C8000DC01CB019F838E838E819F819B838A831E
:101C90008A819B810197F1F79B838A830FC06989B1
:101CA0007A898B899C890E944100DC01CB01888B59
:101CB0008889898389818A95F1F78983DE01A7580C
:101CC000BF4FFE01E758FF4F80818F5F8C93FE016D
:101CD000E758FF4F8081893008F46ACE16CB2F92E7
:101CE0003F924F925F926F927F928F929F92AF92AC
:101CF000BF92CF92DF92EF92FF920F931F93CF93F9
:101D0000DF93CDB7DEB7CA1BDB0B0FB6F894DEBF8F
:101D10000FBECDBF09942A88398848885F846E84B5
:101D20007D848C849B84AA84B984C884DF80EE80FF
:101D3000FD800C811B81AA81B981CE0FD11D0FB608
:101D4000F894DEBF0FBECDBFED010895F894FFCF2C
:081D500000000000000000008B
:00000001FF
